{
	"estudianteAlt.sol": {
		"Estudiante": {
			"abi": [
				{
					"inputs": [
						{
							"internalType": "string",
							"name": "nombre_",
							"type": "string"
						},
						{
							"internalType": "string",
							"name": "apellido_",
							"type": "string"
						},
						{
							"internalType": "string",
							"name": "curso_",
							"type": "string"
						}
					],
					"stateMutability": "nonpayable",
					"type": "constructor"
				},
				{
					"anonymous": false,
					"inputs": [
						{
							"indexed": false,
							"internalType": "string",
							"name": "materia_",
							"type": "string"
						},
						{
							"indexed": false,
							"internalType": "uint8",
							"name": "nota_",
							"type": "uint8"
						}
					],
					"name": "nueva_nota",
					"type": "event"
				},
				{
					"inputs": [
						{
							"internalType": "string",
							"name": "_materia",
							"type": "string"
						}
					],
					"name": "agregar_materia",
					"outputs": [],
					"stateMutability": "nonpayable",
					"type": "function"
				},
				{
					"inputs": [],
					"name": "apellido",
					"outputs": [
						{
							"internalType": "string",
							"name": "",
							"type": "string"
						}
					],
					"stateMutability": "view",
					"type": "function"
				},
				{
					"inputs": [
						{
							"internalType": "string",
							"name": "_materia",
							"type": "string"
						}
					],
					"name": "aprobo",
					"outputs": [
						{
							"internalType": "bool",
							"name": "",
							"type": "bool"
						}
					],
					"stateMutability": "view",
					"type": "function"
				},
				{
					"inputs": [],
					"name": "curso",
					"outputs": [
						{
							"internalType": "string",
							"name": "",
							"type": "string"
						}
					],
					"stateMutability": "view",
					"type": "function"
				},
				{
					"inputs": [],
					"name": "nombre_completo",
					"outputs": [
						{
							"internalType": "string",
							"name": "",
							"type": "string"
						}
					],
					"stateMutability": "view",
					"type": "function"
				},
				{
					"inputs": [
						{
							"internalType": "string",
							"name": "_materia",
							"type": "string"
						}
					],
					"name": "nota_materia",
					"outputs": [
						{
							"internalType": "uint8",
							"name": "",
							"type": "uint8"
						}
					],
					"stateMutability": "view",
					"type": "function"
				},
				{
					"inputs": [],
					"name": "promedio",
					"outputs": [
						{
							"internalType": "uint8",
							"name": "",
							"type": "uint8"
						}
					],
					"stateMutability": "view",
					"type": "function"
				},
				{
					"inputs": [
						{
							"internalType": "uint8",
							"name": "nota_",
							"type": "uint8"
						},
						{
							"internalType": "string",
							"name": "materia_",
							"type": "string"
						}
					],
					"name": "set_nota_materia",
					"outputs": [],
					"stateMutability": "nonpayable",
					"type": "function"
				}
			],
			"devdoc": {
				"kind": "dev",
				"methods": {},
				"version": 1
			},
			"evm": {
				"assembly": "    /* \"estudianteAlt.sol\":58:2026  contract Estudiante {... */\n  mstore(0x40, 0x80)\n    /* \"estudianteAlt.sol\":327:328  0 */\n  0x00\n    /* \"estudianteAlt.sol\":301:328  uint8 private _cant_mat = 0 */\n  0x06\n  exp(0x0100, 0x00)\n  dup2\n  sload\n  dup2\n  0xff\n  mul\n  not\n  and\n  swap1\n  dup4\n  0xff\n  and\n  mul\n  or\n  swap1\n  sstore\n  pop\n    /* \"estudianteAlt.sol\":374:632  constructor(... */\n  callvalue\n  dup1\n  iszero\n  tag_1\n  jumpi\n  0x00\n  dup1\n  revert\ntag_1:\n  pop\n  mload(0x40)\n  sub(codesize, bytecodeSize)\n  dup1\n  bytecodeSize\n  dup4\n  codecopy\n  dup2\n  dup2\n  add\n  0x40\n  mstore\n  dup2\n  add\n  swap1\n  tag_2\n  swap2\n  swap1\n  tag_3\n  jump\t// in\ntag_2:\n    /* \"estudianteAlt.sol\":515:522  nombre_ */\n  dup3\n    /* \"estudianteAlt.sol\":505:512  _nombre */\n  0x00\n    /* \"estudianteAlt.sol\":505:522  _nombre = nombre_ */\n  swap1\n  dup1\n  mload\n  swap1\n  0x20\n  add\n  swap1\n  tag_6\n  swap3\n  swap2\n  swap1\n  tag_7\n  jump\t// in\ntag_6:\n  pop\n    /* \"estudianteAlt.sol\":548:557  apellido_ */\n  dup2\n    /* \"estudianteAlt.sol\":536:545  _apellido */\n  0x01\n    /* \"estudianteAlt.sol\":536:557  _apellido = apellido_ */\n  swap1\n  dup1\n  mload\n  swap1\n  0x20\n  add\n  swap1\n  tag_8\n  swap3\n  swap2\n  swap1\n  tag_7\n  jump\t// in\ntag_8:\n  pop\n    /* \"estudianteAlt.sol\":580:586  curso_ */\n  dup1\n    /* \"estudianteAlt.sol\":571:577  _curso */\n  0x02\n    /* \"estudianteAlt.sol\":571:586  _curso = curso_ */\n  swap1\n  dup1\n  mload\n  swap1\n  0x20\n  add\n  swap1\n  tag_9\n  swap3\n  swap2\n  swap1\n  tag_7\n  jump\t// in\ntag_9:\n  pop\n    /* \"estudianteAlt.sol\":611:621  msg.sender */\n  caller\n    /* \"estudianteAlt.sol\":600:608  _docente */\n  0x03\n  0x00\n    /* \"estudianteAlt.sol\":600:621  _docente = msg.sender */\n  0x0100\n  exp\n  dup2\n  sload\n  dup2\n  0xffffffffffffffffffffffffffffffffffffffff\n  mul\n  not\n  and\n  swap1\n  dup4\n  0xffffffffffffffffffffffffffffffffffffffff\n  and\n  mul\n  or\n  swap1\n  sstore\n  pop\n    /* \"estudianteAlt.sol\":374:632  constructor(... */\n  pop\n  pop\n  pop\n    /* \"estudianteAlt.sol\":58:2026  contract Estudiante {... */\n  jump(tag_10)\ntag_7:\n  dup3\n  dup1\n  sload\n  tag_11\n  swap1\n  tag_12\n  jump\t// in\ntag_11:\n  swap1\n  0x00\n  mstore\n  keccak256(0x00, 0x20)\n  swap1\n  0x1f\n  add\n  0x20\n  swap1\n  div\n  dup2\n  add\n  swap3\n  dup3\n  tag_14\n  jumpi\n  0x00\n  dup6\n  sstore\n  jump(tag_13)\ntag_14:\n  dup3\n  0x1f\n  lt\n  tag_15\n  jumpi\n  dup1\n  mload\n  not(0xff)\n  and\n  dup4\n  dup1\n  add\n  or\n  dup6\n  sstore\n  jump(tag_13)\ntag_15:\n  dup3\n  dup1\n  add\n  0x01\n  add\n  dup6\n  sstore\n  dup3\n  iszero\n  tag_13\n  jumpi\n  swap2\n  dup3\n  add\ntag_16:\n  dup3\n  dup2\n  gt\n  iszero\n  tag_17\n  jumpi\n  dup3\n  mload\n  dup3\n  sstore\n  swap2\n  0x20\n  add\n  swap2\n  swap1\n  0x01\n  add\n  swap1\n  jump(tag_16)\ntag_17:\ntag_13:\n  pop\n  swap1\n  pop\n  tag_18\n  swap2\n  swap1\n  tag_19\n  jump\t// in\ntag_18:\n  pop\n  swap1\n  jump\t// out\ntag_19:\ntag_20:\n  dup1\n  dup3\n  gt\n  iszero\n  tag_21\n  jumpi\n  0x00\n  dup2\n  0x00\n  swap1\n  sstore\n  pop\n  0x01\n  add\n  jump(tag_20)\ntag_21:\n  pop\n  swap1\n  jump\t// out\n    /* \"#utility.yul\":7:82   */\ntag_22:\n    /* \"#utility.yul\":40:46   */\n  0x00\n    /* \"#utility.yul\":73:75   */\n  0x40\n    /* \"#utility.yul\":67:76   */\n  mload\n    /* \"#utility.yul\":57:76   */\n  swap1\n  pop\n    /* \"#utility.yul\":7:82   */\n  swap1\n  jump\t// out\n    /* \"#utility.yul\":88:205   */\ntag_23:\n    /* \"#utility.yul\":197:198   */\n  0x00\n    /* \"#utility.yul\":194:195   */\n  dup1\n    /* \"#utility.yul\":187:199   */\n  revert\n    /* \"#utility.yul\":211:328   */\ntag_24:\n    /* \"#utility.yul\":320:321   */\n  0x00\n    /* \"#utility.yul\":317:318   */\n  dup1\n    /* \"#utility.yul\":310:322   */\n  revert\n    /* \"#utility.yul\":334:451   */\ntag_25:\n    /* \"#utility.yul\":443:444   */\n  0x00\n    /* \"#utility.yul\":440:441   */\n  dup1\n    /* \"#utility.yul\":433:445   */\n  revert\n    /* \"#utility.yul\":457:574   */\ntag_26:\n    /* \"#utility.yul\":566:567   */\n  0x00\n    /* \"#utility.yul\":563:564   */\n  dup1\n    /* \"#utility.yul\":556:568   */\n  revert\n    /* \"#utility.yul\":580:682   */\ntag_27:\n    /* \"#utility.yul\":621:627   */\n  0x00\n    /* \"#utility.yul\":672:674   */\n  0x1f\n    /* \"#utility.yul\":668:675   */\n  not\n    /* \"#utility.yul\":663:665   */\n  0x1f\n    /* \"#utility.yul\":656:661   */\n  dup4\n    /* \"#utility.yul\":652:666   */\n  add\n    /* \"#utility.yul\":648:676   */\n  and\n    /* \"#utility.yul\":638:676   */\n  swap1\n  pop\n    /* \"#utility.yul\":580:682   */\n  swap2\n  swap1\n  pop\n  jump\t// out\n    /* \"#utility.yul\":688:868   */\ntag_28:\n    /* \"#utility.yul\":736:813   */\n  0x4e487b7100000000000000000000000000000000000000000000000000000000\n    /* \"#utility.yul\":733:734   */\n  0x00\n    /* \"#utility.yul\":726:814   */\n  mstore\n    /* \"#utility.yul\":833:837   */\n  0x41\n    /* \"#utility.yul\":830:831   */\n  0x04\n    /* \"#utility.yul\":823:838   */\n  mstore\n    /* \"#utility.yul\":857:861   */\n  0x24\n    /* \"#utility.yul\":854:855   */\n  0x00\n    /* \"#utility.yul\":847:862   */\n  revert\n    /* \"#utility.yul\":874:1155   */\ntag_29:\n    /* \"#utility.yul\":957:984   */\n  tag_45\n    /* \"#utility.yul\":979:983   */\n  dup3\n    /* \"#utility.yul\":957:984   */\n  tag_27\n  jump\t// in\ntag_45:\n    /* \"#utility.yul\":949:955   */\n  dup2\n    /* \"#utility.yul\":945:985   */\n  add\n    /* \"#utility.yul\":1087:1093   */\n  dup2\n    /* \"#utility.yul\":1075:1085   */\n  dup2\n    /* \"#utility.yul\":1072:1094   */\n  lt\n    /* \"#utility.yul\":1051:1069   */\n  0xffffffffffffffff\n    /* \"#utility.yul\":1039:1049   */\n  dup3\n    /* \"#utility.yul\":1036:1070   */\n  gt\n    /* \"#utility.yul\":1033:1095   */\n  or\n    /* \"#utility.yul\":1030:1118   */\n  iszero\n  tag_46\n  jumpi\n    /* \"#utility.yul\":1098:1116   */\n  tag_47\n  tag_28\n  jump\t// in\ntag_47:\n    /* \"#utility.yul\":1030:1118   */\ntag_46:\n    /* \"#utility.yul\":1138:1148   */\n  dup1\n    /* \"#utility.yul\":1134:1136   */\n  0x40\n    /* \"#utility.yul\":1127:1149   */\n  mstore\n    /* \"#utility.yul\":917:1155   */\n  pop\n    /* \"#utility.yul\":874:1155   */\n  pop\n  pop\n  jump\t// out\n    /* \"#utility.yul\":1161:1290   */\ntag_30:\n    /* \"#utility.yul\":1195:1201   */\n  0x00\n    /* \"#utility.yul\":1222:1242   */\n  tag_49\n  tag_22\n  jump\t// in\ntag_49:\n    /* \"#utility.yul\":1212:1242   */\n  swap1\n  pop\n    /* \"#utility.yul\":1251:1284   */\n  tag_50\n    /* \"#utility.yul\":1279:1283   */\n  dup3\n    /* \"#utility.yul\":1271:1277   */\n  dup3\n    /* \"#utility.yul\":1251:1284   */\n  tag_29\n  jump\t// in\ntag_50:\n    /* \"#utility.yul\":1161:1290   */\n  swap2\n  swap1\n  pop\n  jump\t// out\n    /* \"#utility.yul\":1296:1604   */\ntag_31:\n    /* \"#utility.yul\":1358:1362   */\n  0x00\n    /* \"#utility.yul\":1448:1466   */\n  0xffffffffffffffff\n    /* \"#utility.yul\":1440:1446   */\n  dup3\n    /* \"#utility.yul\":1437:1467   */\n  gt\n    /* \"#utility.yul\":1434:1490   */\n  iszero\n  tag_52\n  jumpi\n    /* \"#utility.yul\":1470:1488   */\n  tag_53\n  tag_28\n  jump\t// in\ntag_53:\n    /* \"#utility.yul\":1434:1490   */\ntag_52:\n    /* \"#utility.yul\":1508:1537   */\n  tag_54\n    /* \"#utility.yul\":1530:1536   */\n  dup3\n    /* \"#utility.yul\":1508:1537   */\n  tag_27\n  jump\t// in\ntag_54:\n    /* \"#utility.yul\":1500:1537   */\n  swap1\n  pop\n    /* \"#utility.yul\":1592:1596   */\n  0x20\n    /* \"#utility.yul\":1586:1590   */\n  dup2\n    /* \"#utility.yul\":1582:1597   */\n  add\n    /* \"#utility.yul\":1574:1597   */\n  swap1\n  pop\n    /* \"#utility.yul\":1296:1604   */\n  swap2\n  swap1\n  pop\n  jump\t// out\n    /* \"#utility.yul\":1610:1917   */\ntag_32:\n    /* \"#utility.yul\":1678:1679   */\n  0x00\n    /* \"#utility.yul\":1688:1801   */\ntag_56:\n    /* \"#utility.yul\":1702:1708   */\n  dup4\n    /* \"#utility.yul\":1699:1700   */\n  dup2\n    /* \"#utility.yul\":1696:1709   */\n  lt\n    /* \"#utility.yul\":1688:1801   */\n  iszero\n  tag_58\n  jumpi\n    /* \"#utility.yul\":1787:1788   */\n  dup1\n    /* \"#utility.yul\":1782:1785   */\n  dup3\n    /* \"#utility.yul\":1778:1789   */\n  add\n    /* \"#utility.yul\":1772:1790   */\n  mload\n    /* \"#utility.yul\":1768:1769   */\n  dup2\n    /* \"#utility.yul\":1763:1766   */\n  dup5\n    /* \"#utility.yul\":1759:1770   */\n  add\n    /* \"#utility.yul\":1752:1791   */\n  mstore\n    /* \"#utility.yul\":1724:1726   */\n  0x20\n    /* \"#utility.yul\":1721:1722   */\n  dup2\n    /* \"#utility.yul\":1717:1727   */\n  add\n    /* \"#utility.yul\":1712:1727   */\n  swap1\n  pop\n    /* \"#utility.yul\":1688:1801   */\n  jump(tag_56)\ntag_58:\n    /* \"#utility.yul\":1819:1825   */\n  dup4\n    /* \"#utility.yul\":1816:1817   */\n  dup2\n    /* \"#utility.yul\":1813:1826   */\n  gt\n    /* \"#utility.yul\":1810:1911   */\n  iszero\n  tag_59\n  jumpi\n    /* \"#utility.yul\":1899:1900   */\n  0x00\n    /* \"#utility.yul\":1890:1896   */\n  dup5\n    /* \"#utility.yul\":1885:1888   */\n  dup5\n    /* \"#utility.yul\":1881:1897   */\n  add\n    /* \"#utility.yul\":1874:1901   */\n  mstore\n    /* \"#utility.yul\":1810:1911   */\ntag_59:\n    /* \"#utility.yul\":1659:1917   */\n  pop\n    /* \"#utility.yul\":1610:1917   */\n  pop\n  pop\n  pop\n  jump\t// out\n    /* \"#utility.yul\":1923:2344   */\ntag_33:\n    /* \"#utility.yul\":2012:2017   */\n  0x00\n    /* \"#utility.yul\":2037:2103   */\n  tag_61\n    /* \"#utility.yul\":2053:2102   */\n  tag_62\n    /* \"#utility.yul\":2095:2101   */\n  dup5\n    /* \"#utility.yul\":2053:2102   */\n  tag_31\n  jump\t// in\ntag_62:\n    /* \"#utility.yul\":2037:2103   */\n  tag_30\n  jump\t// in\ntag_61:\n    /* \"#utility.yul\":2028:2103   */\n  swap1\n  pop\n    /* \"#utility.yul\":2126:2132   */\n  dup3\n    /* \"#utility.yul\":2119:2124   */\n  dup2\n    /* \"#utility.yul\":2112:2133   */\n  mstore\n    /* \"#utility.yul\":2164:2168   */\n  0x20\n    /* \"#utility.yul\":2157:2162   */\n  dup2\n    /* \"#utility.yul\":2153:2169   */\n  add\n    /* \"#utility.yul\":2202:2205   */\n  dup5\n    /* \"#utility.yul\":2193:2199   */\n  dup5\n    /* \"#utility.yul\":2188:2191   */\n  dup5\n    /* \"#utility.yul\":2184:2200   */\n  add\n    /* \"#utility.yul\":2181:2206   */\n  gt\n    /* \"#utility.yul\":2178:2290   */\n  iszero\n  tag_63\n  jumpi\n    /* \"#utility.yul\":2209:2288   */\n  tag_64\n  tag_26\n  jump\t// in\ntag_64:\n    /* \"#utility.yul\":2178:2290   */\ntag_63:\n    /* \"#utility.yul\":2299:2338   */\n  tag_65\n    /* \"#utility.yul\":2331:2337   */\n  dup5\n    /* \"#utility.yul\":2326:2329   */\n  dup3\n    /* \"#utility.yul\":2321:2324   */\n  dup6\n    /* \"#utility.yul\":2299:2338   */\n  tag_32\n  jump\t// in\ntag_65:\n    /* \"#utility.yul\":2018:2344   */\n  pop\n    /* \"#utility.yul\":1923:2344   */\n  swap4\n  swap3\n  pop\n  pop\n  pop\n  jump\t// out\n    /* \"#utility.yul\":2364:2719   */\ntag_34:\n    /* \"#utility.yul\":2431:2436   */\n  0x00\n    /* \"#utility.yul\":2480:2483   */\n  dup3\n    /* \"#utility.yul\":2473:2477   */\n  0x1f\n    /* \"#utility.yul\":2465:2471   */\n  dup4\n    /* \"#utility.yul\":2461:2478   */\n  add\n    /* \"#utility.yul\":2457:2484   */\n  slt\n    /* \"#utility.yul\":2447:2569   */\n  tag_67\n  jumpi\n    /* \"#utility.yul\":2488:2567   */\n  tag_68\n  tag_25\n  jump\t// in\ntag_68:\n    /* \"#utility.yul\":2447:2569   */\ntag_67:\n    /* \"#utility.yul\":2598:2604   */\n  dup2\n    /* \"#utility.yul\":2592:2605   */\n  mload\n    /* \"#utility.yul\":2623:2713   */\n  tag_69\n    /* \"#utility.yul\":2709:2712   */\n  dup5\n    /* \"#utility.yul\":2701:2707   */\n  dup3\n    /* \"#utility.yul\":2694:2698   */\n  0x20\n    /* \"#utility.yul\":2686:2692   */\n  dup7\n    /* \"#utility.yul\":2682:2699   */\n  add\n    /* \"#utility.yul\":2623:2713   */\n  tag_33\n  jump\t// in\ntag_69:\n    /* \"#utility.yul\":2614:2713   */\n  swap2\n  pop\n    /* \"#utility.yul\":2437:2719   */\n  pop\n    /* \"#utility.yul\":2364:2719   */\n  swap3\n  swap2\n  pop\n  pop\n  jump\t// out\n    /* \"#utility.yul\":2725:3907   */\ntag_3:\n    /* \"#utility.yul\":2843:2849   */\n  0x00\n    /* \"#utility.yul\":2851:2857   */\n  dup1\n    /* \"#utility.yul\":2859:2865   */\n  0x00\n    /* \"#utility.yul\":2908:2910   */\n  0x60\n    /* \"#utility.yul\":2896:2905   */\n  dup5\n    /* \"#utility.yul\":2887:2894   */\n  dup7\n    /* \"#utility.yul\":2883:2906   */\n  sub\n    /* \"#utility.yul\":2879:2911   */\n  slt\n    /* \"#utility.yul\":2876:2995   */\n  iszero\n  tag_71\n  jumpi\n    /* \"#utility.yul\":2914:2993   */\n  tag_72\n  tag_23\n  jump\t// in\ntag_72:\n    /* \"#utility.yul\":2876:2995   */\ntag_71:\n    /* \"#utility.yul\":3055:3056   */\n  0x00\n    /* \"#utility.yul\":3044:3053   */\n  dup5\n    /* \"#utility.yul\":3040:3057   */\n  add\n    /* \"#utility.yul\":3034:3058   */\n  mload\n    /* \"#utility.yul\":3085:3103   */\n  0xffffffffffffffff\n    /* \"#utility.yul\":3077:3083   */\n  dup2\n    /* \"#utility.yul\":3074:3104   */\n  gt\n    /* \"#utility.yul\":3071:3188   */\n  iszero\n  tag_73\n  jumpi\n    /* \"#utility.yul\":3107:3186   */\n  tag_74\n  tag_24\n  jump\t// in\ntag_74:\n    /* \"#utility.yul\":3071:3188   */\ntag_73:\n    /* \"#utility.yul\":3212:3286   */\n  tag_75\n    /* \"#utility.yul\":3278:3285   */\n  dup7\n    /* \"#utility.yul\":3269:3275   */\n  dup3\n    /* \"#utility.yul\":3258:3267   */\n  dup8\n    /* \"#utility.yul\":3254:3276   */\n  add\n    /* \"#utility.yul\":3212:3286   */\n  tag_34\n  jump\t// in\ntag_75:\n    /* \"#utility.yul\":3202:3286   */\n  swap4\n  pop\n    /* \"#utility.yul\":3005:3296   */\n  pop\n    /* \"#utility.yul\":3356:3358   */\n  0x20\n    /* \"#utility.yul\":3345:3354   */\n  dup5\n    /* \"#utility.yul\":3341:3359   */\n  add\n    /* \"#utility.yul\":3335:3360   */\n  mload\n    /* \"#utility.yul\":3387:3405   */\n  0xffffffffffffffff\n    /* \"#utility.yul\":3379:3385   */\n  dup2\n    /* \"#utility.yul\":3376:3406   */\n  gt\n    /* \"#utility.yul\":3373:3490   */\n  iszero\n  tag_76\n  jumpi\n    /* \"#utility.yul\":3409:3488   */\n  tag_77\n  tag_24\n  jump\t// in\ntag_77:\n    /* \"#utility.yul\":3373:3490   */\ntag_76:\n    /* \"#utility.yul\":3514:3588   */\n  tag_78\n    /* \"#utility.yul\":3580:3587   */\n  dup7\n    /* \"#utility.yul\":3571:3577   */\n  dup3\n    /* \"#utility.yul\":3560:3569   */\n  dup8\n    /* \"#utility.yul\":3556:3578   */\n  add\n    /* \"#utility.yul\":3514:3588   */\n  tag_34\n  jump\t// in\ntag_78:\n    /* \"#utility.yul\":3504:3588   */\n  swap3\n  pop\n    /* \"#utility.yul\":3306:3598   */\n  pop\n    /* \"#utility.yul\":3658:3660   */\n  0x40\n    /* \"#utility.yul\":3647:3656   */\n  dup5\n    /* \"#utility.yul\":3643:3661   */\n  add\n    /* \"#utility.yul\":3637:3662   */\n  mload\n    /* \"#utility.yul\":3689:3707   */\n  0xffffffffffffffff\n    /* \"#utility.yul\":3681:3687   */\n  dup2\n    /* \"#utility.yul\":3678:3708   */\n  gt\n    /* \"#utility.yul\":3675:3792   */\n  iszero\n  tag_79\n  jumpi\n    /* \"#utility.yul\":3711:3790   */\n  tag_80\n  tag_24\n  jump\t// in\ntag_80:\n    /* \"#utility.yul\":3675:3792   */\ntag_79:\n    /* \"#utility.yul\":3816:3890   */\n  tag_81\n    /* \"#utility.yul\":3882:3889   */\n  dup7\n    /* \"#utility.yul\":3873:3879   */\n  dup3\n    /* \"#utility.yul\":3862:3871   */\n  dup8\n    /* \"#utility.yul\":3858:3880   */\n  add\n    /* \"#utility.yul\":3816:3890   */\n  tag_34\n  jump\t// in\ntag_81:\n    /* \"#utility.yul\":3806:3890   */\n  swap2\n  pop\n    /* \"#utility.yul\":3608:3900   */\n  pop\n    /* \"#utility.yul\":2725:3907   */\n  swap3\n  pop\n  swap3\n  pop\n  swap3\n  jump\t// out\n    /* \"#utility.yul\":3913:4093   */\ntag_35:\n    /* \"#utility.yul\":3961:4038   */\n  0x4e487b7100000000000000000000000000000000000000000000000000000000\n    /* \"#utility.yul\":3958:3959   */\n  0x00\n    /* \"#utility.yul\":3951:4039   */\n  mstore\n    /* \"#utility.yul\":4058:4062   */\n  0x22\n    /* \"#utility.yul\":4055:4056   */\n  0x04\n    /* \"#utility.yul\":4048:4063   */\n  mstore\n    /* \"#utility.yul\":4082:4086   */\n  0x24\n    /* \"#utility.yul\":4079:4080   */\n  0x00\n    /* \"#utility.yul\":4072:4087   */\n  revert\n    /* \"#utility.yul\":4099:4419   */\ntag_12:\n    /* \"#utility.yul\":4143:4149   */\n  0x00\n    /* \"#utility.yul\":4180:4181   */\n  0x02\n    /* \"#utility.yul\":4174:4178   */\n  dup3\n    /* \"#utility.yul\":4170:4182   */\n  div\n    /* \"#utility.yul\":4160:4182   */\n  swap1\n  pop\n    /* \"#utility.yul\":4227:4228   */\n  0x01\n    /* \"#utility.yul\":4221:4225   */\n  dup3\n    /* \"#utility.yul\":4217:4229   */\n  and\n    /* \"#utility.yul\":4248:4266   */\n  dup1\n    /* \"#utility.yul\":4238:4319   */\n  tag_84\n  jumpi\n    /* \"#utility.yul\":4304:4308   */\n  0x7f\n    /* \"#utility.yul\":4296:4302   */\n  dup3\n    /* \"#utility.yul\":4292:4309   */\n  and\n    /* \"#utility.yul\":4282:4309   */\n  swap2\n  pop\n    /* \"#utility.yul\":4238:4319   */\ntag_84:\n    /* \"#utility.yul\":4366:4368   */\n  0x20\n    /* \"#utility.yul\":4358:4364   */\n  dup3\n    /* \"#utility.yul\":4355:4369   */\n  lt\n    /* \"#utility.yul\":4335:4353   */\n  dup2\n    /* \"#utility.yul\":4332:4370   */\n  sub\n    /* \"#utility.yul\":4329:4413   */\n  tag_85\n  jumpi\n    /* \"#utility.yul\":4385:4403   */\n  tag_86\n  tag_35\n  jump\t// in\ntag_86:\n    /* \"#utility.yul\":4329:4413   */\ntag_85:\n    /* \"#utility.yul\":4150:4419   */\n  pop\n    /* \"#utility.yul\":4099:4419   */\n  swap2\n  swap1\n  pop\n  jump\t// out\n    /* \"estudianteAlt.sol\":58:2026  contract Estudiante {... */\ntag_10:\n  dataSize(sub_0)\n  dup1\n  dataOffset(sub_0)\n  0x00\n  codecopy\n  0x00\n  return\nstop\n\nsub_0: assembly {\n        /* \"estudianteAlt.sol\":58:2026  contract Estudiante {... */\n      mstore(0x40, 0x80)\n      callvalue\n      dup1\n      iszero\n      tag_1\n      jumpi\n      0x00\n      dup1\n      revert\n    tag_1:\n      pop\n      jumpi(tag_2, lt(calldatasize, 0x04))\n      shr(0xe0, calldataload(0x00))\n      dup1\n      0x7b2e0829\n      gt\n      tag_11\n      jumpi\n      dup1\n      0x7b2e0829\n      eq\n      tag_7\n      jumpi\n      dup1\n      0x811d86c8\n      eq\n      tag_8\n      jumpi\n      dup1\n      0x972a8576\n      eq\n      tag_9\n      jumpi\n      dup1\n      0xdeafcc41\n      eq\n      tag_10\n      jumpi\n      jump(tag_2)\n    tag_11:\n      dup1\n      0x03b0779c\n      eq\n      tag_3\n      jumpi\n      dup1\n      0x2bd228f9\n      eq\n      tag_4\n      jumpi\n      dup1\n      0x40c3a02c\n      eq\n      tag_5\n      jumpi\n      dup1\n      0x7346a9fa\n      eq\n      tag_6\n      jumpi\n    tag_2:\n      0x00\n      dup1\n      revert\n        /* \"estudianteAlt.sol\":1388:1508  function nota_materia(string memory _materia) public view returns(uint8){... */\n    tag_3:\n      tag_12\n      0x04\n      dup1\n      calldatasize\n      sub\n      dup2\n      add\n      swap1\n      tag_13\n      swap2\n      swap1\n      tag_14\n      jump\t// in\n    tag_13:\n      tag_15\n      jump\t// in\n    tag_12:\n      mload(0x40)\n      tag_16\n      swap2\n      swap1\n      tag_17\n      jump\t// in\n    tag_16:\n      mload(0x40)\n      dup1\n      swap2\n      sub\n      swap1\n      return\n        /* \"estudianteAlt.sol\":1145:1382  function set_nota_materia(uint8 nota_, string memory materia_) public es_docente{... */\n    tag_4:\n      tag_18\n      0x04\n      dup1\n      calldatasize\n      sub\n      dup2\n      add\n      swap1\n      tag_19\n      swap2\n      swap1\n      tag_20\n      jump\t// in\n    tag_19:\n      tag_21\n      jump\t// in\n    tag_18:\n      stop\n        /* \"estudianteAlt.sol\":1514:1648  function agregar_materia(string memory _materia) public es_docente {... */\n    tag_5:\n      tag_22\n      0x04\n      dup1\n      calldatasize\n      sub\n      dup2\n      add\n      swap1\n      tag_23\n      swap2\n      swap1\n      tag_14\n      jump\t// in\n    tag_23:\n      tag_24\n      jump\t// in\n    tag_22:\n      stop\n        /* \"estudianteAlt.sol\":889:1052  function nombre_completo() public view returns(string memory){... */\n    tag_6:\n      tag_25\n      tag_26\n      jump\t// in\n    tag_25:\n      mload(0x40)\n      tag_27\n      swap2\n      swap1\n      tag_28\n      jump\t// in\n    tag_27:\n      mload(0x40)\n      dup1\n      swap2\n      sub\n      swap1\n      return\n        /* \"estudianteAlt.sol\":1782:2024  function promedio() public view returns(uint8){... */\n    tag_7:\n      tag_29\n      tag_30\n      jump\t// in\n    tag_29:\n      mload(0x40)\n      tag_31\n      swap2\n      swap1\n      tag_17\n      jump\t// in\n    tag_31:\n      mload(0x40)\n      dup1\n      swap2\n      sub\n      swap1\n      return\n        /* \"estudianteAlt.sol\":1654:1774  function aprobo(string memory _materia) public view returns(bool){... */\n    tag_8:\n      tag_32\n      0x04\n      dup1\n      calldatasize\n      sub\n      dup2\n      add\n      swap1\n      tag_33\n      swap2\n      swap1\n      tag_14\n      jump\t// in\n    tag_33:\n      tag_34\n      jump\t// in\n    tag_32:\n      mload(0x40)\n      tag_35\n      swap2\n      swap1\n      tag_36\n      jump\t// in\n    tag_35:\n      mload(0x40)\n      dup1\n      swap2\n      sub\n      swap1\n      return\n        /* \"estudianteAlt.sol\":795:883  function apellido() public view returns (string memory){... */\n    tag_9:\n      tag_37\n      tag_38\n      jump\t// in\n    tag_37:\n      mload(0x40)\n      tag_39\n      swap2\n      swap1\n      tag_28\n      jump\t// in\n    tag_39:\n      mload(0x40)\n      dup1\n      swap2\n      sub\n      swap1\n      return\n        /* \"estudianteAlt.sol\":1058:1139  function curso() public view returns(string memory){... */\n    tag_10:\n      tag_40\n      tag_41\n      jump\t// in\n    tag_40:\n      mload(0x40)\n      tag_42\n      swap2\n      swap1\n      tag_28\n      jump\t// in\n    tag_42:\n      mload(0x40)\n      dup1\n      swap2\n      sub\n      swap1\n      return\n        /* \"estudianteAlt.sol\":1388:1508  function nota_materia(string memory _materia) public view returns(uint8){... */\n    tag_15:\n        /* \"estudianteAlt.sol\":1454:1459  uint8 */\n      0x00\n        /* \"estudianteAlt.sol\":1477:1491  notas_materias */\n      0x04\n        /* \"estudianteAlt.sol\":1492:1500  _materia */\n      dup3\n        /* \"estudianteAlt.sol\":1477:1501  notas_materias[_materia] */\n      mload(0x40)\n      tag_44\n      swap2\n      swap1\n      tag_45\n      jump\t// in\n    tag_44:\n      swap1\n      dup2\n      mstore\n      0x20\n      add\n      mload(0x40)\n      dup1\n      swap2\n      sub\n      swap1\n      keccak256\n      0x00\n      swap1\n      sload\n      swap1\n      0x0100\n      exp\n      swap1\n      div\n      0xff\n      and\n        /* \"estudianteAlt.sol\":1470:1501  return notas_materias[_materia] */\n      swap1\n      pop\n        /* \"estudianteAlt.sol\":1388:1508  function nota_materia(string memory _materia) public view returns(uint8){... */\n      swap2\n      swap1\n      pop\n      jump\t// out\n        /* \"estudianteAlt.sol\":1145:1382  function set_nota_materia(uint8 nota_, string memory materia_) public es_docente{... */\n    tag_21:\n        /* \"estudianteAlt.sol\":691:699  _docente */\n      0x03\n      0x00\n      swap1\n      sload\n      swap1\n      0x0100\n      exp\n      swap1\n      div\n      0xffffffffffffffffffffffffffffffffffffffff\n      and\n        /* \"estudianteAlt.sol\":677:699  msg.sender == _docente */\n      0xffffffffffffffffffffffffffffffffffffffff\n      and\n        /* \"estudianteAlt.sol\":677:687  msg.sender */\n      caller\n        /* \"estudianteAlt.sol\":677:699  msg.sender == _docente */\n      0xffffffffffffffffffffffffffffffffffffffff\n      and\n      eq\n        /* \"estudianteAlt.sol\":669:718  require(msg.sender == _docente, \"No sos docente\") */\n      tag_47\n      jumpi\n      mload(0x40)\n      0x08c379a000000000000000000000000000000000000000000000000000000000\n      dup2\n      mstore\n      0x04\n      add\n      tag_48\n      swap1\n      tag_49\n      jump\t// in\n    tag_48:\n      mload(0x40)\n      dup1\n      swap2\n      sub\n      swap1\n      revert\n    tag_47:\n        /* \"estudianteAlt.sol\":1251:1252  0 */\n      0x00\n        /* \"estudianteAlt.sol\":1243:1248  nota_ */\n      dup3\n        /* \"estudianteAlt.sol\":1243:1252  nota_ > 0 */\n      0xff\n      and\n      gt\n        /* \"estudianteAlt.sol\":1243:1266  nota_ > 0 && nota_ <101 */\n      dup1\n      iszero\n      tag_51\n      jumpi\n      pop\n        /* \"estudianteAlt.sol\":1263:1266  101 */\n      0x65\n        /* \"estudianteAlt.sol\":1256:1261  nota_ */\n      dup3\n        /* \"estudianteAlt.sol\":1256:1266  nota_ <101 */\n      0xff\n      and\n      lt\n        /* \"estudianteAlt.sol\":1243:1266  nota_ > 0 && nota_ <101 */\n    tag_51:\n        /* \"estudianteAlt.sol\":1235:1291  require(nota_ > 0 && nota_ <101, \"Tu nota no es valida\") */\n      tag_52\n      jumpi\n      mload(0x40)\n      0x08c379a000000000000000000000000000000000000000000000000000000000\n      dup2\n      mstore\n      0x04\n      add\n      tag_53\n      swap1\n      tag_54\n      jump\t// in\n    tag_53:\n      mload(0x40)\n      dup1\n      swap2\n      sub\n      swap1\n      revert\n    tag_52:\n        /* \"estudianteAlt.sol\":1328:1333  nota_ */\n      dup2\n        /* \"estudianteAlt.sol\":1301:1315  notas_materias */\n      0x04\n        /* \"estudianteAlt.sol\":1316:1324  materia_ */\n      dup3\n        /* \"estudianteAlt.sol\":1301:1325  notas_materias[materia_] */\n      mload(0x40)\n      tag_55\n      swap2\n      swap1\n      tag_45\n      jump\t// in\n    tag_55:\n      swap1\n      dup2\n      mstore\n      0x20\n      add\n      mload(0x40)\n      dup1\n      swap2\n      sub\n      swap1\n      keccak256\n      0x00\n        /* \"estudianteAlt.sol\":1301:1333  notas_materias[materia_] = nota_ */\n      0x0100\n      exp\n      dup2\n      sload\n      dup2\n      0xff\n      mul\n      not\n      and\n      swap1\n      dup4\n      0xff\n      and\n      mul\n      or\n      swap1\n      sstore\n      pop\n        /* \"estudianteAlt.sol\":1348:1375  nueva_nota(materia_, nota_) */\n      0xc97b5b477593ccf468bb1c6087a120c857d513bbed811b3bac18702feac8cc23\n        /* \"estudianteAlt.sol\":1359:1367  materia_ */\n      dup2\n        /* \"estudianteAlt.sol\":1369:1374  nota_ */\n      dup4\n        /* \"estudianteAlt.sol\":1348:1375  nueva_nota(materia_, nota_) */\n      mload(0x40)\n      tag_56\n      swap3\n      swap2\n      swap1\n      tag_57\n      jump\t// in\n    tag_56:\n      mload(0x40)\n      dup1\n      swap2\n      sub\n      swap1\n      log1\n        /* \"estudianteAlt.sol\":1145:1382  function set_nota_materia(uint8 nota_, string memory materia_) public es_docente{... */\n      pop\n      pop\n      jump\t// out\n        /* \"estudianteAlt.sol\":1514:1648  function agregar_materia(string memory _materia) public es_docente {... */\n    tag_24:\n        /* \"estudianteAlt.sol\":691:699  _docente */\n      0x03\n      0x00\n      swap1\n      sload\n      swap1\n      0x0100\n      exp\n      swap1\n      div\n      0xffffffffffffffffffffffffffffffffffffffff\n      and\n        /* \"estudianteAlt.sol\":677:699  msg.sender == _docente */\n      0xffffffffffffffffffffffffffffffffffffffff\n      and\n        /* \"estudianteAlt.sol\":677:687  msg.sender */\n      caller\n        /* \"estudianteAlt.sol\":677:699  msg.sender == _docente */\n      0xffffffffffffffffffffffffffffffffffffffff\n      and\n      eq\n        /* \"estudianteAlt.sol\":669:718  require(msg.sender == _docente, \"No sos docente\") */\n      tag_59\n      jumpi\n      mload(0x40)\n      0x08c379a000000000000000000000000000000000000000000000000000000000\n      dup2\n      mstore\n      0x04\n      add\n      tag_60\n      swap1\n      tag_49\n      jump\t// in\n    tag_60:\n      mload(0x40)\n      dup1\n      swap2\n      sub\n      swap1\n      revert\n    tag_59:\n        /* \"estudianteAlt.sol\":1613:1621  _materia */\n      dup1\n        /* \"estudianteAlt.sol\":1590:1599  _materias */\n      0x05\n        /* \"estudianteAlt.sol\":1590:1610  _materias[_cant_mat] */\n      0x00\n        /* \"estudianteAlt.sol\":1600:1609  _cant_mat */\n      0x06\n      0x00\n      swap1\n      sload\n      swap1\n      0x0100\n      exp\n      swap1\n      div\n      0xff\n      and\n        /* \"estudianteAlt.sol\":1590:1610  _materias[_cant_mat] */\n      0xff\n      and\n      0xff\n      and\n      dup2\n      mstore\n      0x20\n      add\n      swap1\n      dup2\n      mstore\n      0x20\n      add\n      0x00\n      keccak256\n        /* \"estudianteAlt.sol\":1590:1621  _materias[_cant_mat] = _materia */\n      swap1\n      dup1\n      mload\n      swap1\n      0x20\n      add\n      swap1\n      tag_62\n      swap3\n      swap2\n      swap1\n      tag_63\n      jump\t// in\n    tag_62:\n      pop\n        /* \"estudianteAlt.sol\":1630:1639  _cant_mat */\n      0x06\n      0x00\n        /* \"estudianteAlt.sol\":1630:1641  _cant_mat++ */\n      dup2\n      dup2\n      swap1\n      sload\n      swap1\n      0x0100\n      exp\n      swap1\n      div\n      0xff\n      and\n      dup1\n      swap3\n      swap2\n      swap1\n      tag_64\n      swap1\n      tag_65\n      jump\t// in\n    tag_64:\n      swap2\n      swap1\n      0x0100\n      exp\n      dup2\n      sload\n      dup2\n      0xff\n      mul\n      not\n      and\n      swap1\n      dup4\n      0xff\n      and\n      mul\n      or\n      swap1\n      sstore\n      pop\n      pop\n        /* \"estudianteAlt.sol\":1514:1648  function agregar_materia(string memory _materia) public es_docente {... */\n      pop\n      jump\t// out\n        /* \"estudianteAlt.sol\":889:1052  function nombre_completo() public view returns(string memory){... */\n    tag_26:\n        /* \"estudianteAlt.sol\":936:949  string memory */\n      0x60\n        /* \"estudianteAlt.sol\":960:976  string memory nc */\n      0x00\n        /* \"estudianteAlt.sol\":1003:1010  _nombre */\n      dup1\n        /* \"estudianteAlt.sol\":1015:1024  _apellido */\n      0x01\n        /* \"estudianteAlt.sol\":986:1025  abi.encodePacked(_nombre,\" \",_apellido) */\n      add(0x20, mload(0x40))\n      tag_67\n      swap3\n      swap2\n      swap1\n      tag_68\n      jump\t// in\n    tag_67:\n      mload(0x40)\n      0x20\n      dup2\n      dup4\n      sub\n      sub\n      dup2\n      mstore\n      swap1\n      0x40\n      mstore\n        /* \"estudianteAlt.sol\":960:1026  string memory nc = string(abi.encodePacked(_nombre,\" \",_apellido)) */\n      swap1\n      pop\n        /* \"estudianteAlt.sol\":1043:1045  nc */\n      dup1\n        /* \"estudianteAlt.sol\":1036:1045  return nc */\n      swap2\n      pop\n      pop\n        /* \"estudianteAlt.sol\":889:1052  function nombre_completo() public view returns(string memory){... */\n      swap1\n      jump\t// out\n        /* \"estudianteAlt.sol\":1782:2024  function promedio() public view returns(uint8){... */\n    tag_30:\n        /* \"estudianteAlt.sol\":1822:1827  uint8 */\n      0x00\n        /* \"estudianteAlt.sol\":1838:1852  uint8 promedio */\n      dup1\n        /* \"estudianteAlt.sol\":1855:1856  0 */\n      0x00\n        /* \"estudianteAlt.sol\":1838:1856  uint8 promedio = 0 */\n      swap1\n      pop\n        /* \"estudianteAlt.sol\":1870:1877  uint8 i */\n      0x00\n        /* \"estudianteAlt.sol\":1866:1962  for(uint8 i =0;i<_cant_mat;i++){... */\n    tag_70:\n        /* \"estudianteAlt.sol\":1883:1892  _cant_mat */\n      0x06\n      0x00\n      swap1\n      sload\n      swap1\n      0x0100\n      exp\n      swap1\n      div\n      0xff\n      and\n        /* \"estudianteAlt.sol\":1881:1892  i<_cant_mat */\n      0xff\n      and\n        /* \"estudianteAlt.sol\":1881:1882  i */\n      dup2\n        /* \"estudianteAlt.sol\":1881:1892  i<_cant_mat */\n      0xff\n      and\n      lt\n        /* \"estudianteAlt.sol\":1866:1962  for(uint8 i =0;i<_cant_mat;i++){... */\n      iszero\n      tag_71\n      jumpi\n        /* \"estudianteAlt.sol\":1923:1937  notas_materias */\n      0x04\n        /* \"estudianteAlt.sol\":1938:1947  _materias */\n      0x05\n        /* \"estudianteAlt.sol\":1938:1950  _materias[i] */\n      0x00\n        /* \"estudianteAlt.sol\":1948:1949  i */\n      dup4\n        /* \"estudianteAlt.sol\":1938:1950  _materias[i] */\n      0xff\n      and\n      0xff\n      and\n      dup2\n      mstore\n      0x20\n      add\n      swap1\n      dup2\n      mstore\n      0x20\n      add\n      0x00\n      keccak256\n        /* \"estudianteAlt.sol\":1923:1951  notas_materias[_materias[i]] */\n      mload(0x40)\n      tag_73\n      swap2\n      swap1\n      tag_74\n      jump\t// in\n    tag_73:\n      swap1\n      dup2\n      mstore\n      0x20\n      add\n      mload(0x40)\n      dup1\n      swap2\n      sub\n      swap1\n      keccak256\n      0x00\n      swap1\n      sload\n      swap1\n      0x0100\n      exp\n      swap1\n      div\n      0xff\n      and\n        /* \"estudianteAlt.sol\":1911:1951  promedio += notas_materias[_materias[i]] */\n      dup3\n      tag_75\n      swap2\n      swap1\n      tag_76\n      jump\t// in\n    tag_75:\n      swap2\n      pop\n        /* \"estudianteAlt.sol\":1893:1896  i++ */\n      dup1\n      dup1\n      tag_77\n      swap1\n      tag_65\n      jump\t// in\n    tag_77:\n      swap2\n      pop\n      pop\n        /* \"estudianteAlt.sol\":1866:1962  for(uint8 i =0;i<_cant_mat;i++){... */\n      jump(tag_70)\n    tag_71:\n      pop\n        /* \"estudianteAlt.sol\":1983:1992  _cant_mat */\n      0x06\n      0x00\n      swap1\n      sload\n      swap1\n      0x0100\n      exp\n      swap1\n      div\n      0xff\n      and\n        /* \"estudianteAlt.sol\":1971:1992  promedio /= _cant_mat */\n      dup2\n      tag_78\n      swap2\n      swap1\n      tag_79\n      jump\t// in\n    tag_78:\n      swap1\n      pop\n        /* \"estudianteAlt.sol\":2009:2017  promedio */\n      dup1\n        /* \"estudianteAlt.sol\":2002:2017  return promedio */\n      swap2\n      pop\n      pop\n        /* \"estudianteAlt.sol\":1782:2024  function promedio() public view returns(uint8){... */\n      swap1\n      jump\t// out\n        /* \"estudianteAlt.sol\":1654:1774  function aprobo(string memory _materia) public view returns(bool){... */\n    tag_34:\n        /* \"estudianteAlt.sol\":1714:1718  bool */\n      0x00\n        /* \"estudianteAlt.sol\":1764:1766  60 */\n      0x3c\n        /* \"estudianteAlt.sol\":1737:1751  notas_materias */\n      0x04\n        /* \"estudianteAlt.sol\":1752:1760  _materia */\n      dup4\n        /* \"estudianteAlt.sol\":1737:1761  notas_materias[_materia] */\n      mload(0x40)\n      tag_81\n      swap2\n      swap1\n      tag_45\n      jump\t// in\n    tag_81:\n      swap1\n      dup2\n      mstore\n      0x20\n      add\n      mload(0x40)\n      dup1\n      swap2\n      sub\n      swap1\n      keccak256\n      0x00\n      swap1\n      sload\n      swap1\n      0x0100\n      exp\n      swap1\n      div\n      0xff\n      and\n        /* \"estudianteAlt.sol\":1737:1766  notas_materias[_materia] > 60 */\n      0xff\n      and\n      gt\n        /* \"estudianteAlt.sol\":1729:1767  return (notas_materias[_materia] > 60) */\n      swap1\n      pop\n        /* \"estudianteAlt.sol\":1654:1774  function aprobo(string memory _materia) public view returns(bool){... */\n      swap2\n      swap1\n      pop\n      jump\t// out\n        /* \"estudianteAlt.sol\":795:883  function apellido() public view returns (string memory){... */\n    tag_38:\n        /* \"estudianteAlt.sol\":836:849  string memory */\n      0x60\n        /* \"estudianteAlt.sol\":867:876  _apellido */\n      0x01\n        /* \"estudianteAlt.sol\":860:876  return _apellido */\n      dup1\n      sload\n      tag_83\n      swap1\n      tag_84\n      jump\t// in\n    tag_83:\n      dup1\n      0x1f\n      add\n      0x20\n      dup1\n      swap2\n      div\n      mul\n      0x20\n      add\n      mload(0x40)\n      swap1\n      dup2\n      add\n      0x40\n      mstore\n      dup1\n      swap3\n      swap2\n      swap1\n      dup2\n      dup2\n      mstore\n      0x20\n      add\n      dup3\n      dup1\n      sload\n      tag_85\n      swap1\n      tag_84\n      jump\t// in\n    tag_85:\n      dup1\n      iszero\n      tag_86\n      jumpi\n      dup1\n      0x1f\n      lt\n      tag_87\n      jumpi\n      0x0100\n      dup1\n      dup4\n      sload\n      div\n      mul\n      dup4\n      mstore\n      swap2\n      0x20\n      add\n      swap2\n      jump(tag_86)\n    tag_87:\n      dup3\n      add\n      swap2\n      swap1\n      0x00\n      mstore\n      keccak256(0x00, 0x20)\n      swap1\n    tag_88:\n      dup2\n      sload\n      dup2\n      mstore\n      swap1\n      0x01\n      add\n      swap1\n      0x20\n      add\n      dup1\n      dup4\n      gt\n      tag_88\n      jumpi\n      dup3\n      swap1\n      sub\n      0x1f\n      and\n      dup3\n      add\n      swap2\n    tag_86:\n      pop\n      pop\n      pop\n      pop\n      pop\n      swap1\n      pop\n        /* \"estudianteAlt.sol\":795:883  function apellido() public view returns (string memory){... */\n      swap1\n      jump\t// out\n        /* \"estudianteAlt.sol\":1058:1139  function curso() public view returns(string memory){... */\n    tag_41:\n        /* \"estudianteAlt.sol\":1095:1108  string memory */\n      0x60\n        /* \"estudianteAlt.sol\":1126:1132  _curso */\n      0x02\n        /* \"estudianteAlt.sol\":1119:1132  return _curso */\n      dup1\n      sload\n      tag_90\n      swap1\n      tag_84\n      jump\t// in\n    tag_90:\n      dup1\n      0x1f\n      add\n      0x20\n      dup1\n      swap2\n      div\n      mul\n      0x20\n      add\n      mload(0x40)\n      swap1\n      dup2\n      add\n      0x40\n      mstore\n      dup1\n      swap3\n      swap2\n      swap1\n      dup2\n      dup2\n      mstore\n      0x20\n      add\n      dup3\n      dup1\n      sload\n      tag_91\n      swap1\n      tag_84\n      jump\t// in\n    tag_91:\n      dup1\n      iszero\n      tag_92\n      jumpi\n      dup1\n      0x1f\n      lt\n      tag_93\n      jumpi\n      0x0100\n      dup1\n      dup4\n      sload\n      div\n      mul\n      dup4\n      mstore\n      swap2\n      0x20\n      add\n      swap2\n      jump(tag_92)\n    tag_93:\n      dup3\n      add\n      swap2\n      swap1\n      0x00\n      mstore\n      keccak256(0x00, 0x20)\n      swap1\n    tag_94:\n      dup2\n      sload\n      dup2\n      mstore\n      swap1\n      0x01\n      add\n      swap1\n      0x20\n      add\n      dup1\n      dup4\n      gt\n      tag_94\n      jumpi\n      dup3\n      swap1\n      sub\n      0x1f\n      and\n      dup3\n      add\n      swap2\n    tag_92:\n      pop\n      pop\n      pop\n      pop\n      pop\n      swap1\n      pop\n        /* \"estudianteAlt.sol\":1058:1139  function curso() public view returns(string memory){... */\n      swap1\n      jump\t// out\n    tag_63:\n      dup3\n      dup1\n      sload\n      tag_95\n      swap1\n      tag_84\n      jump\t// in\n    tag_95:\n      swap1\n      0x00\n      mstore\n      keccak256(0x00, 0x20)\n      swap1\n      0x1f\n      add\n      0x20\n      swap1\n      div\n      dup2\n      add\n      swap3\n      dup3\n      tag_97\n      jumpi\n      0x00\n      dup6\n      sstore\n      jump(tag_96)\n    tag_97:\n      dup3\n      0x1f\n      lt\n      tag_98\n      jumpi\n      dup1\n      mload\n      not(0xff)\n      and\n      dup4\n      dup1\n      add\n      or\n      dup6\n      sstore\n      jump(tag_96)\n    tag_98:\n      dup3\n      dup1\n      add\n      0x01\n      add\n      dup6\n      sstore\n      dup3\n      iszero\n      tag_96\n      jumpi\n      swap2\n      dup3\n      add\n    tag_99:\n      dup3\n      dup2\n      gt\n      iszero\n      tag_100\n      jumpi\n      dup3\n      mload\n      dup3\n      sstore\n      swap2\n      0x20\n      add\n      swap2\n      swap1\n      0x01\n      add\n      swap1\n      jump(tag_99)\n    tag_100:\n    tag_96:\n      pop\n      swap1\n      pop\n      tag_101\n      swap2\n      swap1\n      tag_102\n      jump\t// in\n    tag_101:\n      pop\n      swap1\n      jump\t// out\n    tag_102:\n    tag_103:\n      dup1\n      dup3\n      gt\n      iszero\n      tag_104\n      jumpi\n      0x00\n      dup2\n      0x00\n      swap1\n      sstore\n      pop\n      0x01\n      add\n      jump(tag_103)\n    tag_104:\n      pop\n      swap1\n      jump\t// out\n        /* \"#utility.yul\":7:82   */\n    tag_105:\n        /* \"#utility.yul\":40:46   */\n      0x00\n        /* \"#utility.yul\":73:75   */\n      0x40\n        /* \"#utility.yul\":67:76   */\n      mload\n        /* \"#utility.yul\":57:76   */\n      swap1\n      pop\n        /* \"#utility.yul\":7:82   */\n      swap1\n      jump\t// out\n        /* \"#utility.yul\":88:205   */\n    tag_106:\n        /* \"#utility.yul\":197:198   */\n      0x00\n        /* \"#utility.yul\":194:195   */\n      dup1\n        /* \"#utility.yul\":187:199   */\n      revert\n        /* \"#utility.yul\":211:328   */\n    tag_107:\n        /* \"#utility.yul\":320:321   */\n      0x00\n        /* \"#utility.yul\":317:318   */\n      dup1\n        /* \"#utility.yul\":310:322   */\n      revert\n        /* \"#utility.yul\":334:451   */\n    tag_108:\n        /* \"#utility.yul\":443:444   */\n      0x00\n        /* \"#utility.yul\":440:441   */\n      dup1\n        /* \"#utility.yul\":433:445   */\n      revert\n        /* \"#utility.yul\":457:574   */\n    tag_109:\n        /* \"#utility.yul\":566:567   */\n      0x00\n        /* \"#utility.yul\":563:564   */\n      dup1\n        /* \"#utility.yul\":556:568   */\n      revert\n        /* \"#utility.yul\":580:682   */\n    tag_110:\n        /* \"#utility.yul\":621:627   */\n      0x00\n        /* \"#utility.yul\":672:674   */\n      0x1f\n        /* \"#utility.yul\":668:675   */\n      not\n        /* \"#utility.yul\":663:665   */\n      0x1f\n        /* \"#utility.yul\":656:661   */\n      dup4\n        /* \"#utility.yul\":652:666   */\n      add\n        /* \"#utility.yul\":648:676   */\n      and\n        /* \"#utility.yul\":638:676   */\n      swap1\n      pop\n        /* \"#utility.yul\":580:682   */\n      swap2\n      swap1\n      pop\n      jump\t// out\n        /* \"#utility.yul\":688:868   */\n    tag_111:\n        /* \"#utility.yul\":736:813   */\n      0x4e487b7100000000000000000000000000000000000000000000000000000000\n        /* \"#utility.yul\":733:734   */\n      0x00\n        /* \"#utility.yul\":726:814   */\n      mstore\n        /* \"#utility.yul\":833:837   */\n      0x41\n        /* \"#utility.yul\":830:831   */\n      0x04\n        /* \"#utility.yul\":823:838   */\n      mstore\n        /* \"#utility.yul\":857:861   */\n      0x24\n        /* \"#utility.yul\":854:855   */\n      0x00\n        /* \"#utility.yul\":847:862   */\n      revert\n        /* \"#utility.yul\":874:1155   */\n    tag_112:\n        /* \"#utility.yul\":957:984   */\n      tag_150\n        /* \"#utility.yul\":979:983   */\n      dup3\n        /* \"#utility.yul\":957:984   */\n      tag_110\n      jump\t// in\n    tag_150:\n        /* \"#utility.yul\":949:955   */\n      dup2\n        /* \"#utility.yul\":945:985   */\n      add\n        /* \"#utility.yul\":1087:1093   */\n      dup2\n        /* \"#utility.yul\":1075:1085   */\n      dup2\n        /* \"#utility.yul\":1072:1094   */\n      lt\n        /* \"#utility.yul\":1051:1069   */\n      0xffffffffffffffff\n        /* \"#utility.yul\":1039:1049   */\n      dup3\n        /* \"#utility.yul\":1036:1070   */\n      gt\n        /* \"#utility.yul\":1033:1095   */\n      or\n        /* \"#utility.yul\":1030:1118   */\n      iszero\n      tag_151\n      jumpi\n        /* \"#utility.yul\":1098:1116   */\n      tag_152\n      tag_111\n      jump\t// in\n    tag_152:\n        /* \"#utility.yul\":1030:1118   */\n    tag_151:\n        /* \"#utility.yul\":1138:1148   */\n      dup1\n        /* \"#utility.yul\":1134:1136   */\n      0x40\n        /* \"#utility.yul\":1127:1149   */\n      mstore\n        /* \"#utility.yul\":917:1155   */\n      pop\n        /* \"#utility.yul\":874:1155   */\n      pop\n      pop\n      jump\t// out\n        /* \"#utility.yul\":1161:1290   */\n    tag_113:\n        /* \"#utility.yul\":1195:1201   */\n      0x00\n        /* \"#utility.yul\":1222:1242   */\n      tag_154\n      tag_105\n      jump\t// in\n    tag_154:\n        /* \"#utility.yul\":1212:1242   */\n      swap1\n      pop\n        /* \"#utility.yul\":1251:1284   */\n      tag_155\n        /* \"#utility.yul\":1279:1283   */\n      dup3\n        /* \"#utility.yul\":1271:1277   */\n      dup3\n        /* \"#utility.yul\":1251:1284   */\n      tag_112\n      jump\t// in\n    tag_155:\n        /* \"#utility.yul\":1161:1290   */\n      swap2\n      swap1\n      pop\n      jump\t// out\n        /* \"#utility.yul\":1296:1604   */\n    tag_114:\n        /* \"#utility.yul\":1358:1362   */\n      0x00\n        /* \"#utility.yul\":1448:1466   */\n      0xffffffffffffffff\n        /* \"#utility.yul\":1440:1446   */\n      dup3\n        /* \"#utility.yul\":1437:1467   */\n      gt\n        /* \"#utility.yul\":1434:1490   */\n      iszero\n      tag_157\n      jumpi\n        /* \"#utility.yul\":1470:1488   */\n      tag_158\n      tag_111\n      jump\t// in\n    tag_158:\n        /* \"#utility.yul\":1434:1490   */\n    tag_157:\n        /* \"#utility.yul\":1508:1537   */\n      tag_159\n        /* \"#utility.yul\":1530:1536   */\n      dup3\n        /* \"#utility.yul\":1508:1537   */\n      tag_110\n      jump\t// in\n    tag_159:\n        /* \"#utility.yul\":1500:1537   */\n      swap1\n      pop\n        /* \"#utility.yul\":1592:1596   */\n      0x20\n        /* \"#utility.yul\":1586:1590   */\n      dup2\n        /* \"#utility.yul\":1582:1597   */\n      add\n        /* \"#utility.yul\":1574:1597   */\n      swap1\n      pop\n        /* \"#utility.yul\":1296:1604   */\n      swap2\n      swap1\n      pop\n      jump\t// out\n        /* \"#utility.yul\":1610:1764   */\n    tag_115:\n        /* \"#utility.yul\":1694:1700   */\n      dup3\n        /* \"#utility.yul\":1689:1692   */\n      dup2\n        /* \"#utility.yul\":1684:1687   */\n      dup4\n        /* \"#utility.yul\":1671:1701   */\n      calldatacopy\n        /* \"#utility.yul\":1756:1757   */\n      0x00\n        /* \"#utility.yul\":1747:1753   */\n      dup4\n        /* \"#utility.yul\":1742:1745   */\n      dup4\n        /* \"#utility.yul\":1738:1754   */\n      add\n        /* \"#utility.yul\":1731:1758   */\n      mstore\n        /* \"#utility.yul\":1610:1764   */\n      pop\n      pop\n      pop\n      jump\t// out\n        /* \"#utility.yul\":1770:2182   */\n    tag_116:\n        /* \"#utility.yul\":1848:1853   */\n      0x00\n        /* \"#utility.yul\":1873:1939   */\n      tag_162\n        /* \"#utility.yul\":1889:1938   */\n      tag_163\n        /* \"#utility.yul\":1931:1937   */\n      dup5\n        /* \"#utility.yul\":1889:1938   */\n      tag_114\n      jump\t// in\n    tag_163:\n        /* \"#utility.yul\":1873:1939   */\n      tag_113\n      jump\t// in\n    tag_162:\n        /* \"#utility.yul\":1864:1939   */\n      swap1\n      pop\n        /* \"#utility.yul\":1962:1968   */\n      dup3\n        /* \"#utility.yul\":1955:1960   */\n      dup2\n        /* \"#utility.yul\":1948:1969   */\n      mstore\n        /* \"#utility.yul\":2000:2004   */\n      0x20\n        /* \"#utility.yul\":1993:1998   */\n      dup2\n        /* \"#utility.yul\":1989:2005   */\n      add\n        /* \"#utility.yul\":2038:2041   */\n      dup5\n        /* \"#utility.yul\":2029:2035   */\n      dup5\n        /* \"#utility.yul\":2024:2027   */\n      dup5\n        /* \"#utility.yul\":2020:2036   */\n      add\n        /* \"#utility.yul\":2017:2042   */\n      gt\n        /* \"#utility.yul\":2014:2126   */\n      iszero\n      tag_164\n      jumpi\n        /* \"#utility.yul\":2045:2124   */\n      tag_165\n      tag_109\n      jump\t// in\n    tag_165:\n        /* \"#utility.yul\":2014:2126   */\n    tag_164:\n        /* \"#utility.yul\":2135:2176   */\n      tag_166\n        /* \"#utility.yul\":2169:2175   */\n      dup5\n        /* \"#utility.yul\":2164:2167   */\n      dup3\n        /* \"#utility.yul\":2159:2162   */\n      dup6\n        /* \"#utility.yul\":2135:2176   */\n      tag_115\n      jump\t// in\n    tag_166:\n        /* \"#utility.yul\":1854:2182   */\n      pop\n        /* \"#utility.yul\":1770:2182   */\n      swap4\n      swap3\n      pop\n      pop\n      pop\n      jump\t// out\n        /* \"#utility.yul\":2202:2542   */\n    tag_117:\n        /* \"#utility.yul\":2258:2263   */\n      0x00\n        /* \"#utility.yul\":2307:2310   */\n      dup3\n        /* \"#utility.yul\":2300:2304   */\n      0x1f\n        /* \"#utility.yul\":2292:2298   */\n      dup4\n        /* \"#utility.yul\":2288:2305   */\n      add\n        /* \"#utility.yul\":2284:2311   */\n      slt\n        /* \"#utility.yul\":2274:2396   */\n      tag_168\n      jumpi\n        /* \"#utility.yul\":2315:2394   */\n      tag_169\n      tag_108\n      jump\t// in\n    tag_169:\n        /* \"#utility.yul\":2274:2396   */\n    tag_168:\n        /* \"#utility.yul\":2432:2438   */\n      dup2\n        /* \"#utility.yul\":2419:2439   */\n      calldataload\n        /* \"#utility.yul\":2457:2536   */\n      tag_170\n        /* \"#utility.yul\":2532:2535   */\n      dup5\n        /* \"#utility.yul\":2524:2530   */\n      dup3\n        /* \"#utility.yul\":2517:2521   */\n      0x20\n        /* \"#utility.yul\":2509:2515   */\n      dup7\n        /* \"#utility.yul\":2505:2522   */\n      add\n        /* \"#utility.yul\":2457:2536   */\n      tag_116\n      jump\t// in\n    tag_170:\n        /* \"#utility.yul\":2448:2536   */\n      swap2\n      pop\n        /* \"#utility.yul\":2264:2542   */\n      pop\n        /* \"#utility.yul\":2202:2542   */\n      swap3\n      swap2\n      pop\n      pop\n      jump\t// out\n        /* \"#utility.yul\":2548:3057   */\n    tag_14:\n        /* \"#utility.yul\":2617:2623   */\n      0x00\n        /* \"#utility.yul\":2666:2668   */\n      0x20\n        /* \"#utility.yul\":2654:2663   */\n      dup3\n        /* \"#utility.yul\":2645:2652   */\n      dup5\n        /* \"#utility.yul\":2641:2664   */\n      sub\n        /* \"#utility.yul\":2637:2669   */\n      slt\n        /* \"#utility.yul\":2634:2753   */\n      iszero\n      tag_172\n      jumpi\n        /* \"#utility.yul\":2672:2751   */\n      tag_173\n      tag_106\n      jump\t// in\n    tag_173:\n        /* \"#utility.yul\":2634:2753   */\n    tag_172:\n        /* \"#utility.yul\":2820:2821   */\n      0x00\n        /* \"#utility.yul\":2809:2818   */\n      dup3\n        /* \"#utility.yul\":2805:2822   */\n      add\n        /* \"#utility.yul\":2792:2823   */\n      calldataload\n        /* \"#utility.yul\":2850:2868   */\n      0xffffffffffffffff\n        /* \"#utility.yul\":2842:2848   */\n      dup2\n        /* \"#utility.yul\":2839:2869   */\n      gt\n        /* \"#utility.yul\":2836:2953   */\n      iszero\n      tag_174\n      jumpi\n        /* \"#utility.yul\":2872:2951   */\n      tag_175\n      tag_107\n      jump\t// in\n    tag_175:\n        /* \"#utility.yul\":2836:2953   */\n    tag_174:\n        /* \"#utility.yul\":2977:3040   */\n      tag_176\n        /* \"#utility.yul\":3032:3039   */\n      dup5\n        /* \"#utility.yul\":3023:3029   */\n      dup3\n        /* \"#utility.yul\":3012:3021   */\n      dup6\n        /* \"#utility.yul\":3008:3030   */\n      add\n        /* \"#utility.yul\":2977:3040   */\n      tag_117\n      jump\t// in\n    tag_176:\n        /* \"#utility.yul\":2967:3040   */\n      swap2\n      pop\n        /* \"#utility.yul\":2763:3050   */\n      pop\n        /* \"#utility.yul\":2548:3057   */\n      swap3\n      swap2\n      pop\n      pop\n      jump\t// out\n        /* \"#utility.yul\":3063:3149   */\n    tag_118:\n        /* \"#utility.yul\":3098:3105   */\n      0x00\n        /* \"#utility.yul\":3138:3142   */\n      0xff\n        /* \"#utility.yul\":3131:3136   */\n      dup3\n        /* \"#utility.yul\":3127:3143   */\n      and\n        /* \"#utility.yul\":3116:3143   */\n      swap1\n      pop\n        /* \"#utility.yul\":3063:3149   */\n      swap2\n      swap1\n      pop\n      jump\t// out\n        /* \"#utility.yul\":3155:3267   */\n    tag_119:\n        /* \"#utility.yul\":3238:3260   */\n      tag_179\n        /* \"#utility.yul\":3254:3259   */\n      dup2\n        /* \"#utility.yul\":3238:3260   */\n      tag_118\n      jump\t// in\n    tag_179:\n        /* \"#utility.yul\":3233:3236   */\n      dup3\n        /* \"#utility.yul\":3226:3261   */\n      mstore\n        /* \"#utility.yul\":3155:3267   */\n      pop\n      pop\n      jump\t// out\n        /* \"#utility.yul\":3273:3487   */\n    tag_17:\n        /* \"#utility.yul\":3362:3366   */\n      0x00\n        /* \"#utility.yul\":3400:3402   */\n      0x20\n        /* \"#utility.yul\":3389:3398   */\n      dup3\n        /* \"#utility.yul\":3385:3403   */\n      add\n        /* \"#utility.yul\":3377:3403   */\n      swap1\n      pop\n        /* \"#utility.yul\":3413:3480   */\n      tag_181\n        /* \"#utility.yul\":3477:3478   */\n      0x00\n        /* \"#utility.yul\":3466:3475   */\n      dup4\n        /* \"#utility.yul\":3462:3479   */\n      add\n        /* \"#utility.yul\":3453:3459   */\n      dup5\n        /* \"#utility.yul\":3413:3480   */\n      tag_119\n      jump\t// in\n    tag_181:\n        /* \"#utility.yul\":3273:3487   */\n      swap3\n      swap2\n      pop\n      pop\n      jump\t// out\n        /* \"#utility.yul\":3493:3611   */\n    tag_120:\n        /* \"#utility.yul\":3564:3586   */\n      tag_183\n        /* \"#utility.yul\":3580:3585   */\n      dup2\n        /* \"#utility.yul\":3564:3586   */\n      tag_118\n      jump\t// in\n    tag_183:\n        /* \"#utility.yul\":3557:3562   */\n      dup2\n        /* \"#utility.yul\":3554:3587   */\n      eq\n        /* \"#utility.yul\":3544:3605   */\n      tag_184\n      jumpi\n        /* \"#utility.yul\":3601:3602   */\n      0x00\n        /* \"#utility.yul\":3598:3599   */\n      dup1\n        /* \"#utility.yul\":3591:3603   */\n      revert\n        /* \"#utility.yul\":3544:3605   */\n    tag_184:\n        /* \"#utility.yul\":3493:3611   */\n      pop\n      jump\t// out\n        /* \"#utility.yul\":3617:3752   */\n    tag_121:\n        /* \"#utility.yul\":3661:3666   */\n      0x00\n        /* \"#utility.yul\":3699:3705   */\n      dup2\n        /* \"#utility.yul\":3686:3706   */\n      calldataload\n        /* \"#utility.yul\":3677:3706   */\n      swap1\n      pop\n        /* \"#utility.yul\":3715:3746   */\n      tag_186\n        /* \"#utility.yul\":3740:3745   */\n      dup2\n        /* \"#utility.yul\":3715:3746   */\n      tag_120\n      jump\t// in\n    tag_186:\n        /* \"#utility.yul\":3617:3752   */\n      swap3\n      swap2\n      pop\n      pop\n      jump\t// out\n        /* \"#utility.yul\":3758:4408   */\n    tag_20:\n        /* \"#utility.yul\":3834:3840   */\n      0x00\n        /* \"#utility.yul\":3842:3848   */\n      dup1\n        /* \"#utility.yul\":3891:3893   */\n      0x40\n        /* \"#utility.yul\":3879:3888   */\n      dup4\n        /* \"#utility.yul\":3870:3877   */\n      dup6\n        /* \"#utility.yul\":3866:3889   */\n      sub\n        /* \"#utility.yul\":3862:3894   */\n      slt\n        /* \"#utility.yul\":3859:3978   */\n      iszero\n      tag_188\n      jumpi\n        /* \"#utility.yul\":3897:3976   */\n      tag_189\n      tag_106\n      jump\t// in\n    tag_189:\n        /* \"#utility.yul\":3859:3978   */\n    tag_188:\n        /* \"#utility.yul\":4017:4018   */\n      0x00\n        /* \"#utility.yul\":4042:4093   */\n      tag_190\n        /* \"#utility.yul\":4085:4092   */\n      dup6\n        /* \"#utility.yul\":4076:4082   */\n      dup3\n        /* \"#utility.yul\":4065:4074   */\n      dup7\n        /* \"#utility.yul\":4061:4083   */\n      add\n        /* \"#utility.yul\":4042:4093   */\n      tag_121\n      jump\t// in\n    tag_190:\n        /* \"#utility.yul\":4032:4093   */\n      swap3\n      pop\n        /* \"#utility.yul\":3988:4103   */\n      pop\n        /* \"#utility.yul\":4170:4172   */\n      0x20\n        /* \"#utility.yul\":4159:4168   */\n      dup4\n        /* \"#utility.yul\":4155:4173   */\n      add\n        /* \"#utility.yul\":4142:4174   */\n      calldataload\n        /* \"#utility.yul\":4201:4219   */\n      0xffffffffffffffff\n        /* \"#utility.yul\":4193:4199   */\n      dup2\n        /* \"#utility.yul\":4190:4220   */\n      gt\n        /* \"#utility.yul\":4187:4304   */\n      iszero\n      tag_191\n      jumpi\n        /* \"#utility.yul\":4223:4302   */\n      tag_192\n      tag_107\n      jump\t// in\n    tag_192:\n        /* \"#utility.yul\":4187:4304   */\n    tag_191:\n        /* \"#utility.yul\":4328:4391   */\n      tag_193\n        /* \"#utility.yul\":4383:4390   */\n      dup6\n        /* \"#utility.yul\":4374:4380   */\n      dup3\n        /* \"#utility.yul\":4363:4372   */\n      dup7\n        /* \"#utility.yul\":4359:4381   */\n      add\n        /* \"#utility.yul\":4328:4391   */\n      tag_117\n      jump\t// in\n    tag_193:\n        /* \"#utility.yul\":4318:4391   */\n      swap2\n      pop\n        /* \"#utility.yul\":4113:4401   */\n      pop\n        /* \"#utility.yul\":3758:4408   */\n      swap3\n      pop\n      swap3\n      swap1\n      pop\n      jump\t// out\n        /* \"#utility.yul\":4414:4513   */\n    tag_122:\n        /* \"#utility.yul\":4466:4472   */\n      0x00\n        /* \"#utility.yul\":4500:4505   */\n      dup2\n        /* \"#utility.yul\":4494:4506   */\n      mload\n        /* \"#utility.yul\":4484:4506   */\n      swap1\n      pop\n        /* \"#utility.yul\":4414:4513   */\n      swap2\n      swap1\n      pop\n      jump\t// out\n        /* \"#utility.yul\":4519:4688   */\n    tag_123:\n        /* \"#utility.yul\":4603:4614   */\n      0x00\n        /* \"#utility.yul\":4637:4643   */\n      dup3\n        /* \"#utility.yul\":4632:4635   */\n      dup3\n        /* \"#utility.yul\":4625:4644   */\n      mstore\n        /* \"#utility.yul\":4677:4681   */\n      0x20\n        /* \"#utility.yul\":4672:4675   */\n      dup3\n        /* \"#utility.yul\":4668:4682   */\n      add\n        /* \"#utility.yul\":4653:4682   */\n      swap1\n      pop\n        /* \"#utility.yul\":4519:4688   */\n      swap3\n      swap2\n      pop\n      pop\n      jump\t// out\n        /* \"#utility.yul\":4694:5001   */\n    tag_124:\n        /* \"#utility.yul\":4762:4763   */\n      0x00\n        /* \"#utility.yul\":4772:4885   */\n    tag_197:\n        /* \"#utility.yul\":4786:4792   */\n      dup4\n        /* \"#utility.yul\":4783:4784   */\n      dup2\n        /* \"#utility.yul\":4780:4793   */\n      lt\n        /* \"#utility.yul\":4772:4885   */\n      iszero\n      tag_199\n      jumpi\n        /* \"#utility.yul\":4871:4872   */\n      dup1\n        /* \"#utility.yul\":4866:4869   */\n      dup3\n        /* \"#utility.yul\":4862:4873   */\n      add\n        /* \"#utility.yul\":4856:4874   */\n      mload\n        /* \"#utility.yul\":4852:4853   */\n      dup2\n        /* \"#utility.yul\":4847:4850   */\n      dup5\n        /* \"#utility.yul\":4843:4854   */\n      add\n        /* \"#utility.yul\":4836:4875   */\n      mstore\n        /* \"#utility.yul\":4808:4810   */\n      0x20\n        /* \"#utility.yul\":4805:4806   */\n      dup2\n        /* \"#utility.yul\":4801:4811   */\n      add\n        /* \"#utility.yul\":4796:4811   */\n      swap1\n      pop\n        /* \"#utility.yul\":4772:4885   */\n      jump(tag_197)\n    tag_199:\n        /* \"#utility.yul\":4903:4909   */\n      dup4\n        /* \"#utility.yul\":4900:4901   */\n      dup2\n        /* \"#utility.yul\":4897:4910   */\n      gt\n        /* \"#utility.yul\":4894:4995   */\n      iszero\n      tag_200\n      jumpi\n        /* \"#utility.yul\":4983:4984   */\n      0x00\n        /* \"#utility.yul\":4974:4980   */\n      dup5\n        /* \"#utility.yul\":4969:4972   */\n      dup5\n        /* \"#utility.yul\":4965:4981   */\n      add\n        /* \"#utility.yul\":4958:4985   */\n      mstore\n        /* \"#utility.yul\":4894:4995   */\n    tag_200:\n        /* \"#utility.yul\":4743:5001   */\n      pop\n        /* \"#utility.yul\":4694:5001   */\n      pop\n      pop\n      pop\n      jump\t// out\n        /* \"#utility.yul\":5007:5371   */\n    tag_125:\n        /* \"#utility.yul\":5095:5098   */\n      0x00\n        /* \"#utility.yul\":5123:5162   */\n      tag_202\n        /* \"#utility.yul\":5156:5161   */\n      dup3\n        /* \"#utility.yul\":5123:5162   */\n      tag_122\n      jump\t// in\n    tag_202:\n        /* \"#utility.yul\":5178:5249   */\n      tag_203\n        /* \"#utility.yul\":5242:5248   */\n      dup2\n        /* \"#utility.yul\":5237:5240   */\n      dup6\n        /* \"#utility.yul\":5178:5249   */\n      tag_123\n      jump\t// in\n    tag_203:\n        /* \"#utility.yul\":5171:5249   */\n      swap4\n      pop\n        /* \"#utility.yul\":5258:5310   */\n      tag_204\n        /* \"#utility.yul\":5303:5309   */\n      dup2\n        /* \"#utility.yul\":5298:5301   */\n      dup6\n        /* \"#utility.yul\":5291:5295   */\n      0x20\n        /* \"#utility.yul\":5284:5289   */\n      dup7\n        /* \"#utility.yul\":5280:5296   */\n      add\n        /* \"#utility.yul\":5258:5310   */\n      tag_124\n      jump\t// in\n    tag_204:\n        /* \"#utility.yul\":5335:5364   */\n      tag_205\n        /* \"#utility.yul\":5357:5363   */\n      dup2\n        /* \"#utility.yul\":5335:5364   */\n      tag_110\n      jump\t// in\n    tag_205:\n        /* \"#utility.yul\":5330:5333   */\n      dup5\n        /* \"#utility.yul\":5326:5365   */\n      add\n        /* \"#utility.yul\":5319:5365   */\n      swap2\n      pop\n        /* \"#utility.yul\":5099:5371   */\n      pop\n        /* \"#utility.yul\":5007:5371   */\n      swap3\n      swap2\n      pop\n      pop\n      jump\t// out\n        /* \"#utility.yul\":5377:5690   */\n    tag_28:\n        /* \"#utility.yul\":5490:5494   */\n      0x00\n        /* \"#utility.yul\":5528:5530   */\n      0x20\n        /* \"#utility.yul\":5517:5526   */\n      dup3\n        /* \"#utility.yul\":5513:5531   */\n      add\n        /* \"#utility.yul\":5505:5531   */\n      swap1\n      pop\n        /* \"#utility.yul\":5577:5586   */\n      dup2\n        /* \"#utility.yul\":5571:5575   */\n      dup2\n        /* \"#utility.yul\":5567:5587   */\n      sub\n        /* \"#utility.yul\":5563:5564   */\n      0x00\n        /* \"#utility.yul\":5552:5561   */\n      dup4\n        /* \"#utility.yul\":5548:5565   */\n      add\n        /* \"#utility.yul\":5541:5588   */\n      mstore\n        /* \"#utility.yul\":5605:5683   */\n      tag_207\n        /* \"#utility.yul\":5678:5682   */\n      dup2\n        /* \"#utility.yul\":5669:5675   */\n      dup5\n        /* \"#utility.yul\":5605:5683   */\n      tag_125\n      jump\t// in\n    tag_207:\n        /* \"#utility.yul\":5597:5683   */\n      swap1\n      pop\n        /* \"#utility.yul\":5377:5690   */\n      swap3\n      swap2\n      pop\n      pop\n      jump\t// out\n        /* \"#utility.yul\":5696:5786   */\n    tag_126:\n        /* \"#utility.yul\":5730:5737   */\n      0x00\n        /* \"#utility.yul\":5773:5778   */\n      dup2\n        /* \"#utility.yul\":5766:5779   */\n      iszero\n        /* \"#utility.yul\":5759:5780   */\n      iszero\n        /* \"#utility.yul\":5748:5780   */\n      swap1\n      pop\n        /* \"#utility.yul\":5696:5786   */\n      swap2\n      swap1\n      pop\n      jump\t// out\n        /* \"#utility.yul\":5792:5901   */\n    tag_127:\n        /* \"#utility.yul\":5873:5894   */\n      tag_210\n        /* \"#utility.yul\":5888:5893   */\n      dup2\n        /* \"#utility.yul\":5873:5894   */\n      tag_126\n      jump\t// in\n    tag_210:\n        /* \"#utility.yul\":5868:5871   */\n      dup3\n        /* \"#utility.yul\":5861:5895   */\n      mstore\n        /* \"#utility.yul\":5792:5901   */\n      pop\n      pop\n      jump\t// out\n        /* \"#utility.yul\":5907:6117   */\n    tag_36:\n        /* \"#utility.yul\":5994:5998   */\n      0x00\n        /* \"#utility.yul\":6032:6034   */\n      0x20\n        /* \"#utility.yul\":6021:6030   */\n      dup3\n        /* \"#utility.yul\":6017:6035   */\n      add\n        /* \"#utility.yul\":6009:6035   */\n      swap1\n      pop\n        /* \"#utility.yul\":6045:6110   */\n      tag_212\n        /* \"#utility.yul\":6107:6108   */\n      0x00\n        /* \"#utility.yul\":6096:6105   */\n      dup4\n        /* \"#utility.yul\":6092:6109   */\n      add\n        /* \"#utility.yul\":6083:6089   */\n      dup5\n        /* \"#utility.yul\":6045:6110   */\n      tag_127\n      jump\t// in\n    tag_212:\n        /* \"#utility.yul\":5907:6117   */\n      swap3\n      swap2\n      pop\n      pop\n      jump\t// out\n        /* \"#utility.yul\":6123:6271   */\n    tag_128:\n        /* \"#utility.yul\":6225:6236   */\n      0x00\n        /* \"#utility.yul\":6262:6265   */\n      dup2\n        /* \"#utility.yul\":6247:6265   */\n      swap1\n      pop\n        /* \"#utility.yul\":6123:6271   */\n      swap3\n      swap2\n      pop\n      pop\n      jump\t// out\n        /* \"#utility.yul\":6277:6654   */\n    tag_129:\n        /* \"#utility.yul\":6383:6386   */\n      0x00\n        /* \"#utility.yul\":6411:6450   */\n      tag_215\n        /* \"#utility.yul\":6444:6449   */\n      dup3\n        /* \"#utility.yul\":6411:6450   */\n      tag_122\n      jump\t// in\n    tag_215:\n        /* \"#utility.yul\":6466:6555   */\n      tag_216\n        /* \"#utility.yul\":6548:6554   */\n      dup2\n        /* \"#utility.yul\":6543:6546   */\n      dup6\n        /* \"#utility.yul\":6466:6555   */\n      tag_128\n      jump\t// in\n    tag_216:\n        /* \"#utility.yul\":6459:6555   */\n      swap4\n      pop\n        /* \"#utility.yul\":6564:6616   */\n      tag_217\n        /* \"#utility.yul\":6609:6615   */\n      dup2\n        /* \"#utility.yul\":6604:6607   */\n      dup6\n        /* \"#utility.yul\":6597:6601   */\n      0x20\n        /* \"#utility.yul\":6590:6595   */\n      dup7\n        /* \"#utility.yul\":6586:6602   */\n      add\n        /* \"#utility.yul\":6564:6616   */\n      tag_124\n      jump\t// in\n    tag_217:\n        /* \"#utility.yul\":6641:6647   */\n      dup1\n        /* \"#utility.yul\":6636:6639   */\n      dup5\n        /* \"#utility.yul\":6632:6648   */\n      add\n        /* \"#utility.yul\":6625:6648   */\n      swap2\n      pop\n        /* \"#utility.yul\":6387:6654   */\n      pop\n        /* \"#utility.yul\":6277:6654   */\n      swap3\n      swap2\n      pop\n      pop\n      jump\t// out\n        /* \"#utility.yul\":6660:6935   */\n    tag_45:\n        /* \"#utility.yul\":6792:6795   */\n      0x00\n        /* \"#utility.yul\":6814:6909   */\n      tag_219\n        /* \"#utility.yul\":6905:6908   */\n      dup3\n        /* \"#utility.yul\":6896:6902   */\n      dup5\n        /* \"#utility.yul\":6814:6909   */\n      tag_129\n      jump\t// in\n    tag_219:\n        /* \"#utility.yul\":6807:6909   */\n      swap2\n      pop\n        /* \"#utility.yul\":6926:6929   */\n      dup2\n        /* \"#utility.yul\":6919:6929   */\n      swap1\n      pop\n        /* \"#utility.yul\":6660:6935   */\n      swap3\n      swap2\n      pop\n      pop\n      jump\t// out\n        /* \"#utility.yul\":6941:7105   */\n    tag_130:\n        /* \"#utility.yul\":7081:7097   */\n      0x4e6f20736f7320646f63656e7465000000000000000000000000000000000000\n        /* \"#utility.yul\":7077:7078   */\n      0x00\n        /* \"#utility.yul\":7069:7075   */\n      dup3\n        /* \"#utility.yul\":7065:7079   */\n      add\n        /* \"#utility.yul\":7058:7098   */\n      mstore\n        /* \"#utility.yul\":6941:7105   */\n      pop\n      jump\t// out\n        /* \"#utility.yul\":7111:7477   */\n    tag_131:\n        /* \"#utility.yul\":7253:7256   */\n      0x00\n        /* \"#utility.yul\":7274:7341   */\n      tag_222\n        /* \"#utility.yul\":7338:7340   */\n      0x0e\n        /* \"#utility.yul\":7333:7336   */\n      dup4\n        /* \"#utility.yul\":7274:7341   */\n      tag_123\n      jump\t// in\n    tag_222:\n        /* \"#utility.yul\":7267:7341   */\n      swap2\n      pop\n        /* \"#utility.yul\":7350:7443   */\n      tag_223\n        /* \"#utility.yul\":7439:7442   */\n      dup3\n        /* \"#utility.yul\":7350:7443   */\n      tag_130\n      jump\t// in\n    tag_223:\n        /* \"#utility.yul\":7468:7470   */\n      0x20\n        /* \"#utility.yul\":7463:7466   */\n      dup3\n        /* \"#utility.yul\":7459:7471   */\n      add\n        /* \"#utility.yul\":7452:7471   */\n      swap1\n      pop\n        /* \"#utility.yul\":7111:7477   */\n      swap2\n      swap1\n      pop\n      jump\t// out\n        /* \"#utility.yul\":7483:7902   */\n    tag_49:\n        /* \"#utility.yul\":7649:7653   */\n      0x00\n        /* \"#utility.yul\":7687:7689   */\n      0x20\n        /* \"#utility.yul\":7676:7685   */\n      dup3\n        /* \"#utility.yul\":7672:7690   */\n      add\n        /* \"#utility.yul\":7664:7690   */\n      swap1\n      pop\n        /* \"#utility.yul\":7736:7745   */\n      dup2\n        /* \"#utility.yul\":7730:7734   */\n      dup2\n        /* \"#utility.yul\":7726:7746   */\n      sub\n        /* \"#utility.yul\":7722:7723   */\n      0x00\n        /* \"#utility.yul\":7711:7720   */\n      dup4\n        /* \"#utility.yul\":7707:7724   */\n      add\n        /* \"#utility.yul\":7700:7747   */\n      mstore\n        /* \"#utility.yul\":7764:7895   */\n      tag_225\n        /* \"#utility.yul\":7890:7894   */\n      dup2\n        /* \"#utility.yul\":7764:7895   */\n      tag_131\n      jump\t// in\n    tag_225:\n        /* \"#utility.yul\":7756:7895   */\n      swap1\n      pop\n        /* \"#utility.yul\":7483:7902   */\n      swap2\n      swap1\n      pop\n      jump\t// out\n        /* \"#utility.yul\":7908:8078   */\n    tag_132:\n        /* \"#utility.yul\":8048:8070   */\n      0x5475206e6f7461206e6f2065732076616c696461000000000000000000000000\n        /* \"#utility.yul\":8044:8045   */\n      0x00\n        /* \"#utility.yul\":8036:8042   */\n      dup3\n        /* \"#utility.yul\":8032:8046   */\n      add\n        /* \"#utility.yul\":8025:8071   */\n      mstore\n        /* \"#utility.yul\":7908:8078   */\n      pop\n      jump\t// out\n        /* \"#utility.yul\":8084:8450   */\n    tag_133:\n        /* \"#utility.yul\":8226:8229   */\n      0x00\n        /* \"#utility.yul\":8247:8314   */\n      tag_228\n        /* \"#utility.yul\":8311:8313   */\n      0x14\n        /* \"#utility.yul\":8306:8309   */\n      dup4\n        /* \"#utility.yul\":8247:8314   */\n      tag_123\n      jump\t// in\n    tag_228:\n        /* \"#utility.yul\":8240:8314   */\n      swap2\n      pop\n        /* \"#utility.yul\":8323:8416   */\n      tag_229\n        /* \"#utility.yul\":8412:8415   */\n      dup3\n        /* \"#utility.yul\":8323:8416   */\n      tag_132\n      jump\t// in\n    tag_229:\n        /* \"#utility.yul\":8441:8443   */\n      0x20\n        /* \"#utility.yul\":8436:8439   */\n      dup3\n        /* \"#utility.yul\":8432:8444   */\n      add\n        /* \"#utility.yul\":8425:8444   */\n      swap1\n      pop\n        /* \"#utility.yul\":8084:8450   */\n      swap2\n      swap1\n      pop\n      jump\t// out\n        /* \"#utility.yul\":8456:8875   */\n    tag_54:\n        /* \"#utility.yul\":8622:8626   */\n      0x00\n        /* \"#utility.yul\":8660:8662   */\n      0x20\n        /* \"#utility.yul\":8649:8658   */\n      dup3\n        /* \"#utility.yul\":8645:8663   */\n      add\n        /* \"#utility.yul\":8637:8663   */\n      swap1\n      pop\n        /* \"#utility.yul\":8709:8718   */\n      dup2\n        /* \"#utility.yul\":8703:8707   */\n      dup2\n        /* \"#utility.yul\":8699:8719   */\n      sub\n        /* \"#utility.yul\":8695:8696   */\n      0x00\n        /* \"#utility.yul\":8684:8693   */\n      dup4\n        /* \"#utility.yul\":8680:8697   */\n      add\n        /* \"#utility.yul\":8673:8720   */\n      mstore\n        /* \"#utility.yul\":8737:8868   */\n      tag_231\n        /* \"#utility.yul\":8863:8867   */\n      dup2\n        /* \"#utility.yul\":8737:8868   */\n      tag_133\n      jump\t// in\n    tag_231:\n        /* \"#utility.yul\":8729:8868   */\n      swap1\n      pop\n        /* \"#utility.yul\":8456:8875   */\n      swap2\n      swap1\n      pop\n      jump\t// out\n        /* \"#utility.yul\":8881:9296   */\n    tag_57:\n        /* \"#utility.yul\":9018:9022   */\n      0x00\n        /* \"#utility.yul\":9056:9058   */\n      0x40\n        /* \"#utility.yul\":9045:9054   */\n      dup3\n        /* \"#utility.yul\":9041:9059   */\n      add\n        /* \"#utility.yul\":9033:9059   */\n      swap1\n      pop\n        /* \"#utility.yul\":9105:9114   */\n      dup2\n        /* \"#utility.yul\":9099:9103   */\n      dup2\n        /* \"#utility.yul\":9095:9115   */\n      sub\n        /* \"#utility.yul\":9091:9092   */\n      0x00\n        /* \"#utility.yul\":9080:9089   */\n      dup4\n        /* \"#utility.yul\":9076:9093   */\n      add\n        /* \"#utility.yul\":9069:9116   */\n      mstore\n        /* \"#utility.yul\":9133:9211   */\n      tag_233\n        /* \"#utility.yul\":9206:9210   */\n      dup2\n        /* \"#utility.yul\":9197:9203   */\n      dup6\n        /* \"#utility.yul\":9133:9211   */\n      tag_125\n      jump\t// in\n    tag_233:\n        /* \"#utility.yul\":9125:9211   */\n      swap1\n      pop\n        /* \"#utility.yul\":9221:9289   */\n      tag_234\n        /* \"#utility.yul\":9285:9287   */\n      0x20\n        /* \"#utility.yul\":9274:9283   */\n      dup4\n        /* \"#utility.yul\":9270:9288   */\n      add\n        /* \"#utility.yul\":9261:9267   */\n      dup5\n        /* \"#utility.yul\":9221:9289   */\n      tag_119\n      jump\t// in\n    tag_234:\n        /* \"#utility.yul\":8881:9296   */\n      swap4\n      swap3\n      pop\n      pop\n      pop\n      jump\t// out\n        /* \"#utility.yul\":9302:9482   */\n    tag_134:\n        /* \"#utility.yul\":9350:9427   */\n      0x4e487b7100000000000000000000000000000000000000000000000000000000\n        /* \"#utility.yul\":9347:9348   */\n      0x00\n        /* \"#utility.yul\":9340:9428   */\n      mstore\n        /* \"#utility.yul\":9447:9451   */\n      0x11\n        /* \"#utility.yul\":9444:9445   */\n      0x04\n        /* \"#utility.yul\":9437:9452   */\n      mstore\n        /* \"#utility.yul\":9471:9475   */\n      0x24\n        /* \"#utility.yul\":9468:9469   */\n      0x00\n        /* \"#utility.yul\":9461:9476   */\n      revert\n        /* \"#utility.yul\":9488:9655   */\n    tag_65:\n        /* \"#utility.yul\":9525:9528   */\n      0x00\n        /* \"#utility.yul\":9548:9570   */\n      tag_237\n        /* \"#utility.yul\":9564:9569   */\n      dup3\n        /* \"#utility.yul\":9548:9570   */\n      tag_118\n      jump\t// in\n    tag_237:\n        /* \"#utility.yul\":9539:9570   */\n      swap2\n      pop\n        /* \"#utility.yul\":9592:9596   */\n      0xff\n        /* \"#utility.yul\":9585:9590   */\n      dup3\n        /* \"#utility.yul\":9582:9597   */\n      sub\n        /* \"#utility.yul\":9579:9620   */\n      tag_238\n      jumpi\n        /* \"#utility.yul\":9600:9618   */\n      tag_239\n      tag_134\n      jump\t// in\n    tag_239:\n        /* \"#utility.yul\":9579:9620   */\n    tag_238:\n        /* \"#utility.yul\":9647:9648   */\n      0x01\n        /* \"#utility.yul\":9640:9645   */\n      dup3\n        /* \"#utility.yul\":9636:9649   */\n      add\n        /* \"#utility.yul\":9629:9649   */\n      swap1\n      pop\n        /* \"#utility.yul\":9488:9655   */\n      swap2\n      swap1\n      pop\n      jump\t// out\n        /* \"#utility.yul\":9661:9841   */\n    tag_135:\n        /* \"#utility.yul\":9709:9786   */\n      0x4e487b7100000000000000000000000000000000000000000000000000000000\n        /* \"#utility.yul\":9706:9707   */\n      0x00\n        /* \"#utility.yul\":9699:9787   */\n      mstore\n        /* \"#utility.yul\":9806:9810   */\n      0x22\n        /* \"#utility.yul\":9803:9804   */\n      0x04\n        /* \"#utility.yul\":9796:9811   */\n      mstore\n        /* \"#utility.yul\":9830:9834   */\n      0x24\n        /* \"#utility.yul\":9827:9828   */\n      0x00\n        /* \"#utility.yul\":9820:9835   */\n      revert\n        /* \"#utility.yul\":9847:10167   */\n    tag_84:\n        /* \"#utility.yul\":9891:9897   */\n      0x00\n        /* \"#utility.yul\":9928:9929   */\n      0x02\n        /* \"#utility.yul\":9922:9926   */\n      dup3\n        /* \"#utility.yul\":9918:9930   */\n      div\n        /* \"#utility.yul\":9908:9930   */\n      swap1\n      pop\n        /* \"#utility.yul\":9975:9976   */\n      0x01\n        /* \"#utility.yul\":9969:9973   */\n      dup3\n        /* \"#utility.yul\":9965:9977   */\n      and\n        /* \"#utility.yul\":9996:10014   */\n      dup1\n        /* \"#utility.yul\":9986:10067   */\n      tag_242\n      jumpi\n        /* \"#utility.yul\":10052:10056   */\n      0x7f\n        /* \"#utility.yul\":10044:10050   */\n      dup3\n        /* \"#utility.yul\":10040:10057   */\n      and\n        /* \"#utility.yul\":10030:10057   */\n      swap2\n      pop\n        /* \"#utility.yul\":9986:10067   */\n    tag_242:\n        /* \"#utility.yul\":10114:10116   */\n      0x20\n        /* \"#utility.yul\":10106:10112   */\n      dup3\n        /* \"#utility.yul\":10103:10117   */\n      lt\n        /* \"#utility.yul\":10083:10101   */\n      dup2\n        /* \"#utility.yul\":10080:10118   */\n      sub\n        /* \"#utility.yul\":10077:10161   */\n      tag_243\n      jumpi\n        /* \"#utility.yul\":10133:10151   */\n      tag_244\n      tag_135\n      jump\t// in\n    tag_244:\n        /* \"#utility.yul\":10077:10161   */\n    tag_243:\n        /* \"#utility.yul\":9898:10167   */\n      pop\n        /* \"#utility.yul\":9847:10167   */\n      swap2\n      swap1\n      pop\n      jump\t// out\n        /* \"#utility.yul\":10173:10314   */\n    tag_136:\n        /* \"#utility.yul\":10222:10226   */\n      0x00\n        /* \"#utility.yul\":10245:10248   */\n      dup2\n        /* \"#utility.yul\":10237:10248   */\n      swap1\n      pop\n        /* \"#utility.yul\":10268:10271   */\n      dup2\n        /* \"#utility.yul\":10265:10266   */\n      0x00\n        /* \"#utility.yul\":10258:10272   */\n      mstore\n        /* \"#utility.yul\":10302:10306   */\n      0x20\n        /* \"#utility.yul\":10299:10300   */\n      0x00\n        /* \"#utility.yul\":10289:10307   */\n      keccak256\n        /* \"#utility.yul\":10281:10307   */\n      swap1\n      pop\n        /* \"#utility.yul\":10173:10314   */\n      swap2\n      swap1\n      pop\n      jump\t// out\n        /* \"#utility.yul\":10344:11189   */\n    tag_137:\n        /* \"#utility.yul\":10447:10450   */\n      0x00\n        /* \"#utility.yul\":10484:10489   */\n      dup2\n        /* \"#utility.yul\":10478:10490   */\n      sload\n        /* \"#utility.yul\":10513:10549   */\n      tag_247\n        /* \"#utility.yul\":10539:10548   */\n      dup2\n        /* \"#utility.yul\":10513:10549   */\n      tag_84\n      jump\t// in\n    tag_247:\n        /* \"#utility.yul\":10565:10654   */\n      tag_248\n        /* \"#utility.yul\":10647:10653   */\n      dup2\n        /* \"#utility.yul\":10642:10645   */\n      dup7\n        /* \"#utility.yul\":10565:10654   */\n      tag_128\n      jump\t// in\n    tag_248:\n        /* \"#utility.yul\":10558:10654   */\n      swap5\n      pop\n        /* \"#utility.yul\":10685:10686   */\n      0x01\n        /* \"#utility.yul\":10674:10683   */\n      dup3\n        /* \"#utility.yul\":10670:10687   */\n      and\n        /* \"#utility.yul\":10701:10702   */\n      0x00\n        /* \"#utility.yul\":10696:10833   */\n      dup2\n      eq\n      tag_250\n      jumpi\n        /* \"#utility.yul\":10847:10848   */\n      0x01\n        /* \"#utility.yul\":10842:11183   */\n      dup2\n      eq\n      tag_251\n      jumpi\n        /* \"#utility.yul\":10663:11183   */\n      jump(tag_249)\n        /* \"#utility.yul\":10696:10833   */\n    tag_250:\n        /* \"#utility.yul\":10780:10784   */\n      0xff\n        /* \"#utility.yul\":10776:10785   */\n      not\n        /* \"#utility.yul\":10765:10774   */\n      dup4\n        /* \"#utility.yul\":10761:10786   */\n      and\n        /* \"#utility.yul\":10756:10759   */\n      dup7\n        /* \"#utility.yul\":10749:10787   */\n      mstore\n        /* \"#utility.yul\":10816:10822   */\n      dup2\n        /* \"#utility.yul\":10811:10814   */\n      dup7\n        /* \"#utility.yul\":10807:10823   */\n      add\n        /* \"#utility.yul\":10800:10823   */\n      swap4\n      pop\n        /* \"#utility.yul\":10696:10833   */\n      jump(tag_249)\n        /* \"#utility.yul\":10842:11183   */\n    tag_251:\n        /* \"#utility.yul\":10909:10947   */\n      tag_252\n        /* \"#utility.yul\":10941:10946   */\n      dup6\n        /* \"#utility.yul\":10909:10947   */\n      tag_136\n      jump\t// in\n    tag_252:\n        /* \"#utility.yul\":10969:10970   */\n      0x00\n        /* \"#utility.yul\":10983:11137   */\n    tag_253:\n        /* \"#utility.yul\":10997:11003   */\n      dup4\n        /* \"#utility.yul\":10994:10995   */\n      dup2\n        /* \"#utility.yul\":10991:11004   */\n      lt\n        /* \"#utility.yul\":10983:11137   */\n      iszero\n      tag_255\n      jumpi\n        /* \"#utility.yul\":11071:11078   */\n      dup2\n        /* \"#utility.yul\":11065:11079   */\n      sload\n        /* \"#utility.yul\":11061:11062   */\n      dup2\n        /* \"#utility.yul\":11056:11059   */\n      dup10\n        /* \"#utility.yul\":11052:11063   */\n      add\n        /* \"#utility.yul\":11045:11080   */\n      mstore\n        /* \"#utility.yul\":11121:11122   */\n      0x01\n        /* \"#utility.yul\":11112:11119   */\n      dup3\n        /* \"#utility.yul\":11108:11123   */\n      add\n        /* \"#utility.yul\":11097:11123   */\n      swap2\n      pop\n        /* \"#utility.yul\":11019:11023   */\n      0x20\n        /* \"#utility.yul\":11016:11017   */\n      dup2\n        /* \"#utility.yul\":11012:11024   */\n      add\n        /* \"#utility.yul\":11007:11024   */\n      swap1\n      pop\n        /* \"#utility.yul\":10983:11137   */\n      jump(tag_253)\n    tag_255:\n        /* \"#utility.yul\":11166:11172   */\n      dup4\n        /* \"#utility.yul\":11161:11164   */\n      dup9\n        /* \"#utility.yul\":11157:11173   */\n      add\n        /* \"#utility.yul\":11150:11173   */\n      swap6\n      pop\n        /* \"#utility.yul\":10849:11183   */\n      pop\n      pop\n        /* \"#utility.yul\":10663:11183   */\n    tag_249:\n      pop\n        /* \"#utility.yul\":10451:11189   */\n      pop\n      pop\n        /* \"#utility.yul\":10344:11189   */\n      swap3\n      swap2\n      pop\n      pop\n      jump\t// out\n        /* \"#utility.yul\":11195:11346   */\n    tag_138:\n        /* \"#utility.yul\":11335:11338   */\n      0x2000000000000000000000000000000000000000000000000000000000000000\n        /* \"#utility.yul\":11331:11332   */\n      0x00\n        /* \"#utility.yul\":11323:11329   */\n      dup3\n        /* \"#utility.yul\":11319:11333   */\n      add\n        /* \"#utility.yul\":11312:11339   */\n      mstore\n        /* \"#utility.yul\":11195:11346   */\n      pop\n      jump\t// out\n        /* \"#utility.yul\":11352:11752   */\n    tag_139:\n        /* \"#utility.yul\":11512:11515   */\n      0x00\n        /* \"#utility.yul\":11533:11617   */\n      tag_258\n        /* \"#utility.yul\":11615:11616   */\n      0x01\n        /* \"#utility.yul\":11610:11613   */\n      dup4\n        /* \"#utility.yul\":11533:11617   */\n      tag_128\n      jump\t// in\n    tag_258:\n        /* \"#utility.yul\":11526:11617   */\n      swap2\n      pop\n        /* \"#utility.yul\":11626:11719   */\n      tag_259\n        /* \"#utility.yul\":11715:11718   */\n      dup3\n        /* \"#utility.yul\":11626:11719   */\n      tag_138\n      jump\t// in\n    tag_259:\n        /* \"#utility.yul\":11744:11745   */\n      0x01\n        /* \"#utility.yul\":11739:11742   */\n      dup3\n        /* \"#utility.yul\":11735:11746   */\n      add\n        /* \"#utility.yul\":11728:11746   */\n      swap1\n      pop\n        /* \"#utility.yul\":11352:11752   */\n      swap2\n      swap1\n      pop\n      jump\t// out\n        /* \"#utility.yul\":11758:12447   */\n    tag_68:\n        /* \"#utility.yul\":12033:12036   */\n      0x00\n        /* \"#utility.yul\":12055:12147   */\n      tag_261\n        /* \"#utility.yul\":12143:12146   */\n      dup3\n        /* \"#utility.yul\":12134:12140   */\n      dup6\n        /* \"#utility.yul\":12055:12147   */\n      tag_137\n      jump\t// in\n    tag_261:\n        /* \"#utility.yul\":12048:12147   */\n      swap2\n      pop\n        /* \"#utility.yul\":12164:12312   */\n      tag_262\n        /* \"#utility.yul\":12308:12311   */\n      dup3\n        /* \"#utility.yul\":12164:12312   */\n      tag_139\n      jump\t// in\n    tag_262:\n        /* \"#utility.yul\":12157:12312   */\n      swap2\n      pop\n        /* \"#utility.yul\":12329:12421   */\n      tag_263\n        /* \"#utility.yul\":12417:12420   */\n      dup3\n        /* \"#utility.yul\":12408:12414   */\n      dup5\n        /* \"#utility.yul\":12329:12421   */\n      tag_137\n      jump\t// in\n    tag_263:\n        /* \"#utility.yul\":12322:12421   */\n      swap2\n      pop\n        /* \"#utility.yul\":12438:12441   */\n      dup2\n        /* \"#utility.yul\":12431:12441   */\n      swap1\n      pop\n        /* \"#utility.yul\":11758:12447   */\n      swap4\n      swap3\n      pop\n      pop\n      pop\n      jump\t// out\n        /* \"#utility.yul\":12453:12722   */\n    tag_74:\n        /* \"#utility.yul\":12582:12585   */\n      0x00\n        /* \"#utility.yul\":12604:12696   */\n      tag_265\n        /* \"#utility.yul\":12692:12695   */\n      dup3\n        /* \"#utility.yul\":12683:12689   */\n      dup5\n        /* \"#utility.yul\":12604:12696   */\n      tag_137\n      jump\t// in\n    tag_265:\n        /* \"#utility.yul\":12597:12696   */\n      swap2\n      pop\n        /* \"#utility.yul\":12713:12716   */\n      dup2\n        /* \"#utility.yul\":12706:12716   */\n      swap1\n      pop\n        /* \"#utility.yul\":12453:12722   */\n      swap3\n      swap2\n      pop\n      pop\n      jump\t// out\n        /* \"#utility.yul\":12728:12965   */\n    tag_76:\n        /* \"#utility.yul\":12766:12769   */\n      0x00\n        /* \"#utility.yul\":12785:12803   */\n      tag_267\n        /* \"#utility.yul\":12801:12802   */\n      dup3\n        /* \"#utility.yul\":12785:12803   */\n      tag_118\n      jump\t// in\n    tag_267:\n        /* \"#utility.yul\":12780:12803   */\n      swap2\n      pop\n        /* \"#utility.yul\":12817:12835   */\n      tag_268\n        /* \"#utility.yul\":12833:12834   */\n      dup4\n        /* \"#utility.yul\":12817:12835   */\n      tag_118\n      jump\t// in\n    tag_268:\n        /* \"#utility.yul\":12812:12835   */\n      swap3\n      pop\n        /* \"#utility.yul\":12907:12908   */\n      dup3\n        /* \"#utility.yul\":12901:12905   */\n      0xff\n        /* \"#utility.yul\":12897:12909   */\n      sub\n        /* \"#utility.yul\":12894:12895   */\n      dup3\n        /* \"#utility.yul\":12891:12910   */\n      gt\n        /* \"#utility.yul\":12888:12933   */\n      iszero\n      tag_269\n      jumpi\n        /* \"#utility.yul\":12913:12931   */\n      tag_270\n      tag_134\n      jump\t// in\n    tag_270:\n        /* \"#utility.yul\":12888:12933   */\n    tag_269:\n        /* \"#utility.yul\":12957:12958   */\n      dup3\n        /* \"#utility.yul\":12954:12955   */\n      dup3\n        /* \"#utility.yul\":12950:12959   */\n      add\n        /* \"#utility.yul\":12943:12959   */\n      swap1\n      pop\n        /* \"#utility.yul\":12728:12965   */\n      swap3\n      swap2\n      pop\n      pop\n      jump\t// out\n        /* \"#utility.yul\":12971:13151   */\n    tag_140:\n        /* \"#utility.yul\":13019:13096   */\n      0x4e487b7100000000000000000000000000000000000000000000000000000000\n        /* \"#utility.yul\":13016:13017   */\n      0x00\n        /* \"#utility.yul\":13009:13097   */\n      mstore\n        /* \"#utility.yul\":13116:13120   */\n      0x12\n        /* \"#utility.yul\":13113:13114   */\n      0x04\n        /* \"#utility.yul\":13106:13121   */\n      mstore\n        /* \"#utility.yul\":13140:13144   */\n      0x24\n        /* \"#utility.yul\":13137:13138   */\n      0x00\n        /* \"#utility.yul\":13130:13145   */\n      revert\n        /* \"#utility.yul\":13157:13336   */\n    tag_79:\n        /* \"#utility.yul\":13195:13196   */\n      0x00\n        /* \"#utility.yul\":13212:13230   */\n      tag_273\n        /* \"#utility.yul\":13228:13229   */\n      dup3\n        /* \"#utility.yul\":13212:13230   */\n      tag_118\n      jump\t// in\n    tag_273:\n        /* \"#utility.yul\":13207:13230   */\n      swap2\n      pop\n        /* \"#utility.yul\":13244:13262   */\n      tag_274\n        /* \"#utility.yul\":13260:13261   */\n      dup4\n        /* \"#utility.yul\":13244:13262   */\n      tag_118\n      jump\t// in\n    tag_274:\n        /* \"#utility.yul\":13239:13262   */\n      swap3\n      pop\n        /* \"#utility.yul\":13281:13282   */\n      dup3\n        /* \"#utility.yul\":13271:13306   */\n      tag_275\n      jumpi\n        /* \"#utility.yul\":13286:13304   */\n      tag_276\n      tag_140\n      jump\t// in\n    tag_276:\n        /* \"#utility.yul\":13271:13306   */\n    tag_275:\n        /* \"#utility.yul\":13328:13329   */\n      dup3\n        /* \"#utility.yul\":13325:13326   */\n      dup3\n        /* \"#utility.yul\":13321:13330   */\n      div\n        /* \"#utility.yul\":13316:13330   */\n      swap1\n      pop\n        /* \"#utility.yul\":13157:13336   */\n      swap3\n      swap2\n      pop\n      pop\n      jump\t// out\n\n    auxdata: 0xa2646970667358221220ec55a9a78bd0db78bcdfef3ecfab762f54042780339a97cf7f15bb2ba7af4e3264736f6c634300080e0033\n}\n",
				"bytecode": {
					"linkReferences": {},
					"object": "60806040526000600660006101000a81548160ff021916908360ff1602179055503480156200002d57600080fd5b50604051620012bf380380620012bf833981810160405281019062000053919062000335565b82600090805190602001906200006b929190620000e8565b50816001908051906020019062000084929190620000e8565b5080600290805190602001906200009d929190620000e8565b5033600360006101000a81548173ffffffffffffffffffffffffffffffffffffffff021916908373ffffffffffffffffffffffffffffffffffffffff16021790555050505062000452565b828054620000f6906200041d565b90600052602060002090601f0160209004810192826200011a576000855562000166565b82601f106200013557805160ff191683800117855562000166565b8280016001018555821562000166579182015b828111156200016557825182559160200191906001019062000148565b5b50905062000175919062000179565b5090565b5b80821115620001945760008160009055506001016200017a565b5090565b6000604051905090565b600080fd5b600080fd5b600080fd5b600080fd5b6000601f19601f8301169050919050565b7f4e487b7100000000000000000000000000000000000000000000000000000000600052604160045260246000fd5b6200020182620001b6565b810181811067ffffffffffffffff82111715620002235762000222620001c7565b5b80604052505050565b60006200023862000198565b9050620002468282620001f6565b919050565b600067ffffffffffffffff821115620002695762000268620001c7565b5b6200027482620001b6565b9050602081019050919050565b60005b83811015620002a157808201518184015260208101905062000284565b83811115620002b1576000848401525b50505050565b6000620002ce620002c8846200024b565b6200022c565b905082815260208101848484011115620002ed57620002ec620001b1565b5b620002fa84828562000281565b509392505050565b600082601f8301126200031a5762000319620001ac565b5b81516200032c848260208601620002b7565b91505092915050565b600080600060608486031215620003515762000350620001a2565b5b600084015167ffffffffffffffff811115620003725762000371620001a7565b5b620003808682870162000302565b935050602084015167ffffffffffffffff811115620003a457620003a3620001a7565b5b620003b28682870162000302565b925050604084015167ffffffffffffffff811115620003d657620003d5620001a7565b5b620003e48682870162000302565b9150509250925092565b7f4e487b7100000000000000000000000000000000000000000000000000000000600052602260045260246000fd5b600060028204905060018216806200043657607f821691505b6020821081036200044c576200044b620003ee565b5b50919050565b610e5d80620004626000396000f3fe608060405234801561001057600080fd5b50600436106100885760003560e01c80637b2e08291161005b5780637b2e082914610113578063811d86c814610131578063972a857614610161578063deafcc411461017f57610088565b806303b0779c1461008d5780632bd228f9146100bd57806340c3a02c146100d95780637346a9fa146100f5575b600080fd5b6100a760048036038101906100a2919061086f565b61019d565b6040516100b491906108d4565b60405180910390f35b6100d760048036038101906100d2919061091b565b6101d2565b005b6100f360048036038101906100ee919061086f565b61032b565b005b6100fd610433565b60405161010a91906109ff565b60405180910390f35b61011b610463565b60405161012891906108d4565b60405180910390f35b61014b6004803603810190610146919061086f565b610513565b6040516101589190610a3c565b60405180910390f35b61016961054e565b60405161017691906109ff565b60405180910390f35b6101876105e0565b60405161019491906109ff565b60405180910390f35b60006004826040516101af9190610a93565b908152602001604051809103902060009054906101000a900460ff169050919050565b600360009054906101000a900473ffffffffffffffffffffffffffffffffffffffff1673ffffffffffffffffffffffffffffffffffffffff163373ffffffffffffffffffffffffffffffffffffffff1614610262576040517f08c379a000000000000000000000000000000000000000000000000000000000815260040161025990610af6565b60405180910390fd5b60008260ff16118015610278575060658260ff16105b6102b7576040517f08c379a00000000000000000000000000000000000000000000000000000000081526004016102ae90610b62565b60405180910390fd5b816004826040516102c89190610a93565b908152602001604051809103902060006101000a81548160ff021916908360ff1602179055507fc97b5b477593ccf468bb1c6087a120c857d513bbed811b3bac18702feac8cc23818360405161031f929190610b82565b60405180910390a15050565b600360009054906101000a900473ffffffffffffffffffffffffffffffffffffffff1673ffffffffffffffffffffffffffffffffffffffff163373ffffffffffffffffffffffffffffffffffffffff16146103bb576040517f08c379a00000000000000000000000000000000000000000000000000000000081526004016103b290610af6565b60405180910390fd5b8060056000600660009054906101000a900460ff1660ff1660ff16815260200190815260200160002090805190602001906103f7929190610672565b506006600081819054906101000a900460ff168092919061041790610be1565b91906101000a81548160ff021916908360ff1602179055505050565b6060600080600160405160200161044b929190610d4a565b60405160208183030381529060405290508091505090565b6000806000905060005b600660009054906101000a900460ff1660ff168160ff1610156104ee576004600560008360ff1660ff1681526020019081526020016000206040516104b29190610d79565b908152602001604051809103902060009054906101000a900460ff16826104d99190610d90565b915080806104e690610be1565b91505061046d565b50600660009054906101000a900460ff168161050a9190610df6565b90508091505090565b6000603c6004836040516105279190610a93565b908152602001604051809103902060009054906101000a900460ff1660ff16119050919050565b60606001805461055d90610c39565b80601f016020809104026020016040519081016040528092919081815260200182805461058990610c39565b80156105d65780601f106105ab576101008083540402835291602001916105d6565b820191906000526020600020905b8154815290600101906020018083116105b957829003601f168201915b5050505050905090565b6060600280546105ef90610c39565b80601f016020809104026020016040519081016040528092919081815260200182805461061b90610c39565b80156106685780601f1061063d57610100808354040283529160200191610668565b820191906000526020600020905b81548152906001019060200180831161064b57829003601f168201915b5050505050905090565b82805461067e90610c39565b90600052602060002090601f0160209004810192826106a057600085556106e7565b82601f106106b957805160ff19168380011785556106e7565b828001600101855582156106e7579182015b828111156106e65782518255916020019190600101906106cb565b5b5090506106f491906106f8565b5090565b5b808211156107115760008160009055506001016106f9565b5090565b6000604051905090565b600080fd5b600080fd5b600080fd5b600080fd5b6000601f19601f8301169050919050565b7f4e487b7100000000000000000000000000000000000000000000000000000000600052604160045260246000fd5b61077c82610733565b810181811067ffffffffffffffff8211171561079b5761079a610744565b5b80604052505050565b60006107ae610715565b90506107ba8282610773565b919050565b600067ffffffffffffffff8211156107da576107d9610744565b5b6107e382610733565b9050602081019050919050565b82818337600083830152505050565b600061081261080d846107bf565b6107a4565b90508281526020810184848401111561082e5761082d61072e565b5b6108398482856107f0565b509392505050565b600082601f83011261085657610855610729565b5b81356108668482602086016107ff565b91505092915050565b6000602082840312156108855761088461071f565b5b600082013567ffffffffffffffff8111156108a3576108a2610724565b5b6108af84828501610841565b91505092915050565b600060ff82169050919050565b6108ce816108b8565b82525050565b60006020820190506108e960008301846108c5565b92915050565b6108f8816108b8565b811461090357600080fd5b50565b600081359050610915816108ef565b92915050565b600080604083850312156109325761093161071f565b5b600061094085828601610906565b925050602083013567ffffffffffffffff81111561096157610960610724565b5b61096d85828601610841565b9150509250929050565b600081519050919050565b600082825260208201905092915050565b60005b838110156109b1578082015181840152602081019050610996565b838111156109c0576000848401525b50505050565b60006109d182610977565b6109db8185610982565b93506109eb818560208601610993565b6109f481610733565b840191505092915050565b60006020820190508181036000830152610a1981846109c6565b905092915050565b60008115159050919050565b610a3681610a21565b82525050565b6000602082019050610a516000830184610a2d565b92915050565b600081905092915050565b6000610a6d82610977565b610a778185610a57565b9350610a87818560208601610993565b80840191505092915050565b6000610a9f8284610a62565b915081905092915050565b7f4e6f20736f7320646f63656e7465000000000000000000000000000000000000600082015250565b6000610ae0600e83610982565b9150610aeb82610aaa565b602082019050919050565b60006020820190508181036000830152610b0f81610ad3565b9050919050565b7f5475206e6f7461206e6f2065732076616c696461000000000000000000000000600082015250565b6000610b4c601483610982565b9150610b5782610b16565b602082019050919050565b60006020820190508181036000830152610b7b81610b3f565b9050919050565b60006040820190508181036000830152610b9c81856109c6565b9050610bab60208301846108c5565b9392505050565b7f4e487b7100000000000000000000000000000000000000000000000000000000600052601160045260246000fd5b6000610bec826108b8565b915060ff8203610bff57610bfe610bb2565b5b600182019050919050565b7f4e487b7100000000000000000000000000000000000000000000000000000000600052602260045260246000fd5b60006002820490506001821680610c5157607f821691505b602082108103610c6457610c63610c0a565b5b50919050565b60008190508160005260206000209050919050565b60008154610c8c81610c39565b610c968186610a57565b94506001821660008114610cb15760018114610cc257610cf5565b60ff19831686528186019350610cf5565b610ccb85610c6a565b60005b83811015610ced57815481890152600182019150602081019050610cce565b838801955050505b50505092915050565b7f2000000000000000000000000000000000000000000000000000000000000000600082015250565b6000610d34600183610a57565b9150610d3f82610cfe565b600182019050919050565b6000610d568285610c7f565b9150610d6182610d27565b9150610d6d8284610c7f565b91508190509392505050565b6000610d858284610c7f565b915081905092915050565b6000610d9b826108b8565b9150610da6836108b8565b92508260ff03821115610dbc57610dbb610bb2565b5b828201905092915050565b7f4e487b7100000000000000000000000000000000000000000000000000000000600052601260045260246000fd5b6000610e01826108b8565b9150610e0c836108b8565b925082610e1c57610e1b610dc7565b5b82820490509291505056fea2646970667358221220ec55a9a78bd0db78bcdfef3ecfab762f54042780339a97cf7f15bb2ba7af4e3264736f6c634300080e0033",
					"opcodes": "PUSH1 0x80 PUSH1 0x40 MSTORE PUSH1 0x0 PUSH1 0x6 PUSH1 0x0 PUSH2 0x100 EXP DUP2 SLOAD DUP2 PUSH1 0xFF MUL NOT AND SWAP1 DUP4 PUSH1 0xFF AND MUL OR SWAP1 SSTORE POP CALLVALUE DUP1 ISZERO PUSH3 0x2D JUMPI PUSH1 0x0 DUP1 REVERT JUMPDEST POP PUSH1 0x40 MLOAD PUSH3 0x12BF CODESIZE SUB DUP1 PUSH3 0x12BF DUP4 CODECOPY DUP2 DUP2 ADD PUSH1 0x40 MSTORE DUP2 ADD SWAP1 PUSH3 0x53 SWAP2 SWAP1 PUSH3 0x335 JUMP JUMPDEST DUP3 PUSH1 0x0 SWAP1 DUP1 MLOAD SWAP1 PUSH1 0x20 ADD SWAP1 PUSH3 0x6B SWAP3 SWAP2 SWAP1 PUSH3 0xE8 JUMP JUMPDEST POP DUP2 PUSH1 0x1 SWAP1 DUP1 MLOAD SWAP1 PUSH1 0x20 ADD SWAP1 PUSH3 0x84 SWAP3 SWAP2 SWAP1 PUSH3 0xE8 JUMP JUMPDEST POP DUP1 PUSH1 0x2 SWAP1 DUP1 MLOAD SWAP1 PUSH1 0x20 ADD SWAP1 PUSH3 0x9D SWAP3 SWAP2 SWAP1 PUSH3 0xE8 JUMP JUMPDEST POP CALLER PUSH1 0x3 PUSH1 0x0 PUSH2 0x100 EXP DUP2 SLOAD DUP2 PUSH20 0xFFFFFFFFFFFFFFFFFFFFFFFFFFFFFFFFFFFFFFFF MUL NOT AND SWAP1 DUP4 PUSH20 0xFFFFFFFFFFFFFFFFFFFFFFFFFFFFFFFFFFFFFFFF AND MUL OR SWAP1 SSTORE POP POP POP POP PUSH3 0x452 JUMP JUMPDEST DUP3 DUP1 SLOAD PUSH3 0xF6 SWAP1 PUSH3 0x41D JUMP JUMPDEST SWAP1 PUSH1 0x0 MSTORE PUSH1 0x20 PUSH1 0x0 KECCAK256 SWAP1 PUSH1 0x1F ADD PUSH1 0x20 SWAP1 DIV DUP2 ADD SWAP3 DUP3 PUSH3 0x11A JUMPI PUSH1 0x0 DUP6 SSTORE PUSH3 0x166 JUMP JUMPDEST DUP3 PUSH1 0x1F LT PUSH3 0x135 JUMPI DUP1 MLOAD PUSH1 0xFF NOT AND DUP4 DUP1 ADD OR DUP6 SSTORE PUSH3 0x166 JUMP JUMPDEST DUP3 DUP1 ADD PUSH1 0x1 ADD DUP6 SSTORE DUP3 ISZERO PUSH3 0x166 JUMPI SWAP2 DUP3 ADD JUMPDEST DUP3 DUP2 GT ISZERO PUSH3 0x165 JUMPI DUP3 MLOAD DUP3 SSTORE SWAP2 PUSH1 0x20 ADD SWAP2 SWAP1 PUSH1 0x1 ADD SWAP1 PUSH3 0x148 JUMP JUMPDEST JUMPDEST POP SWAP1 POP PUSH3 0x175 SWAP2 SWAP1 PUSH3 0x179 JUMP JUMPDEST POP SWAP1 JUMP JUMPDEST JUMPDEST DUP1 DUP3 GT ISZERO PUSH3 0x194 JUMPI PUSH1 0x0 DUP2 PUSH1 0x0 SWAP1 SSTORE POP PUSH1 0x1 ADD PUSH3 0x17A JUMP JUMPDEST POP SWAP1 JUMP JUMPDEST PUSH1 0x0 PUSH1 0x40 MLOAD SWAP1 POP SWAP1 JUMP JUMPDEST PUSH1 0x0 DUP1 REVERT JUMPDEST PUSH1 0x0 DUP1 REVERT JUMPDEST PUSH1 0x0 DUP1 REVERT JUMPDEST PUSH1 0x0 DUP1 REVERT JUMPDEST PUSH1 0x0 PUSH1 0x1F NOT PUSH1 0x1F DUP4 ADD AND SWAP1 POP SWAP2 SWAP1 POP JUMP JUMPDEST PUSH32 0x4E487B7100000000000000000000000000000000000000000000000000000000 PUSH1 0x0 MSTORE PUSH1 0x41 PUSH1 0x4 MSTORE PUSH1 0x24 PUSH1 0x0 REVERT JUMPDEST PUSH3 0x201 DUP3 PUSH3 0x1B6 JUMP JUMPDEST DUP2 ADD DUP2 DUP2 LT PUSH8 0xFFFFFFFFFFFFFFFF DUP3 GT OR ISZERO PUSH3 0x223 JUMPI PUSH3 0x222 PUSH3 0x1C7 JUMP JUMPDEST JUMPDEST DUP1 PUSH1 0x40 MSTORE POP POP POP JUMP JUMPDEST PUSH1 0x0 PUSH3 0x238 PUSH3 0x198 JUMP JUMPDEST SWAP1 POP PUSH3 0x246 DUP3 DUP3 PUSH3 0x1F6 JUMP JUMPDEST SWAP2 SWAP1 POP JUMP JUMPDEST PUSH1 0x0 PUSH8 0xFFFFFFFFFFFFFFFF DUP3 GT ISZERO PUSH3 0x269 JUMPI PUSH3 0x268 PUSH3 0x1C7 JUMP JUMPDEST JUMPDEST PUSH3 0x274 DUP3 PUSH3 0x1B6 JUMP JUMPDEST SWAP1 POP PUSH1 0x20 DUP2 ADD SWAP1 POP SWAP2 SWAP1 POP JUMP JUMPDEST PUSH1 0x0 JUMPDEST DUP4 DUP2 LT ISZERO PUSH3 0x2A1 JUMPI DUP1 DUP3 ADD MLOAD DUP2 DUP5 ADD MSTORE PUSH1 0x20 DUP2 ADD SWAP1 POP PUSH3 0x284 JUMP JUMPDEST DUP4 DUP2 GT ISZERO PUSH3 0x2B1 JUMPI PUSH1 0x0 DUP5 DUP5 ADD MSTORE JUMPDEST POP POP POP POP JUMP JUMPDEST PUSH1 0x0 PUSH3 0x2CE PUSH3 0x2C8 DUP5 PUSH3 0x24B JUMP JUMPDEST PUSH3 0x22C JUMP JUMPDEST SWAP1 POP DUP3 DUP2 MSTORE PUSH1 0x20 DUP2 ADD DUP5 DUP5 DUP5 ADD GT ISZERO PUSH3 0x2ED JUMPI PUSH3 0x2EC PUSH3 0x1B1 JUMP JUMPDEST JUMPDEST PUSH3 0x2FA DUP5 DUP3 DUP6 PUSH3 0x281 JUMP JUMPDEST POP SWAP4 SWAP3 POP POP POP JUMP JUMPDEST PUSH1 0x0 DUP3 PUSH1 0x1F DUP4 ADD SLT PUSH3 0x31A JUMPI PUSH3 0x319 PUSH3 0x1AC JUMP JUMPDEST JUMPDEST DUP2 MLOAD PUSH3 0x32C DUP5 DUP3 PUSH1 0x20 DUP7 ADD PUSH3 0x2B7 JUMP JUMPDEST SWAP2 POP POP SWAP3 SWAP2 POP POP JUMP JUMPDEST PUSH1 0x0 DUP1 PUSH1 0x0 PUSH1 0x60 DUP5 DUP7 SUB SLT ISZERO PUSH3 0x351 JUMPI PUSH3 0x350 PUSH3 0x1A2 JUMP JUMPDEST JUMPDEST PUSH1 0x0 DUP5 ADD MLOAD PUSH8 0xFFFFFFFFFFFFFFFF DUP2 GT ISZERO PUSH3 0x372 JUMPI PUSH3 0x371 PUSH3 0x1A7 JUMP JUMPDEST JUMPDEST PUSH3 0x380 DUP7 DUP3 DUP8 ADD PUSH3 0x302 JUMP JUMPDEST SWAP4 POP POP PUSH1 0x20 DUP5 ADD MLOAD PUSH8 0xFFFFFFFFFFFFFFFF DUP2 GT ISZERO PUSH3 0x3A4 JUMPI PUSH3 0x3A3 PUSH3 0x1A7 JUMP JUMPDEST JUMPDEST PUSH3 0x3B2 DUP7 DUP3 DUP8 ADD PUSH3 0x302 JUMP JUMPDEST SWAP3 POP POP PUSH1 0x40 DUP5 ADD MLOAD PUSH8 0xFFFFFFFFFFFFFFFF DUP2 GT ISZERO PUSH3 0x3D6 JUMPI PUSH3 0x3D5 PUSH3 0x1A7 JUMP JUMPDEST JUMPDEST PUSH3 0x3E4 DUP7 DUP3 DUP8 ADD PUSH3 0x302 JUMP JUMPDEST SWAP2 POP POP SWAP3 POP SWAP3 POP SWAP3 JUMP JUMPDEST PUSH32 0x4E487B7100000000000000000000000000000000000000000000000000000000 PUSH1 0x0 MSTORE PUSH1 0x22 PUSH1 0x4 MSTORE PUSH1 0x24 PUSH1 0x0 REVERT JUMPDEST PUSH1 0x0 PUSH1 0x2 DUP3 DIV SWAP1 POP PUSH1 0x1 DUP3 AND DUP1 PUSH3 0x436 JUMPI PUSH1 0x7F DUP3 AND SWAP2 POP JUMPDEST PUSH1 0x20 DUP3 LT DUP2 SUB PUSH3 0x44C JUMPI PUSH3 0x44B PUSH3 0x3EE JUMP JUMPDEST JUMPDEST POP SWAP2 SWAP1 POP JUMP JUMPDEST PUSH2 0xE5D DUP1 PUSH3 0x462 PUSH1 0x0 CODECOPY PUSH1 0x0 RETURN INVALID PUSH1 0x80 PUSH1 0x40 MSTORE CALLVALUE DUP1 ISZERO PUSH2 0x10 JUMPI PUSH1 0x0 DUP1 REVERT JUMPDEST POP PUSH1 0x4 CALLDATASIZE LT PUSH2 0x88 JUMPI PUSH1 0x0 CALLDATALOAD PUSH1 0xE0 SHR DUP1 PUSH4 0x7B2E0829 GT PUSH2 0x5B JUMPI DUP1 PUSH4 0x7B2E0829 EQ PUSH2 0x113 JUMPI DUP1 PUSH4 0x811D86C8 EQ PUSH2 0x131 JUMPI DUP1 PUSH4 0x972A8576 EQ PUSH2 0x161 JUMPI DUP1 PUSH4 0xDEAFCC41 EQ PUSH2 0x17F JUMPI PUSH2 0x88 JUMP JUMPDEST DUP1 PUSH4 0x3B0779C EQ PUSH2 0x8D JUMPI DUP1 PUSH4 0x2BD228F9 EQ PUSH2 0xBD JUMPI DUP1 PUSH4 0x40C3A02C EQ PUSH2 0xD9 JUMPI DUP1 PUSH4 0x7346A9FA EQ PUSH2 0xF5 JUMPI JUMPDEST PUSH1 0x0 DUP1 REVERT JUMPDEST PUSH2 0xA7 PUSH1 0x4 DUP1 CALLDATASIZE SUB DUP2 ADD SWAP1 PUSH2 0xA2 SWAP2 SWAP1 PUSH2 0x86F JUMP JUMPDEST PUSH2 0x19D JUMP JUMPDEST PUSH1 0x40 MLOAD PUSH2 0xB4 SWAP2 SWAP1 PUSH2 0x8D4 JUMP JUMPDEST PUSH1 0x40 MLOAD DUP1 SWAP2 SUB SWAP1 RETURN JUMPDEST PUSH2 0xD7 PUSH1 0x4 DUP1 CALLDATASIZE SUB DUP2 ADD SWAP1 PUSH2 0xD2 SWAP2 SWAP1 PUSH2 0x91B JUMP JUMPDEST PUSH2 0x1D2 JUMP JUMPDEST STOP JUMPDEST PUSH2 0xF3 PUSH1 0x4 DUP1 CALLDATASIZE SUB DUP2 ADD SWAP1 PUSH2 0xEE SWAP2 SWAP1 PUSH2 0x86F JUMP JUMPDEST PUSH2 0x32B JUMP JUMPDEST STOP JUMPDEST PUSH2 0xFD PUSH2 0x433 JUMP JUMPDEST PUSH1 0x40 MLOAD PUSH2 0x10A SWAP2 SWAP1 PUSH2 0x9FF JUMP JUMPDEST PUSH1 0x40 MLOAD DUP1 SWAP2 SUB SWAP1 RETURN JUMPDEST PUSH2 0x11B PUSH2 0x463 JUMP JUMPDEST PUSH1 0x40 MLOAD PUSH2 0x128 SWAP2 SWAP1 PUSH2 0x8D4 JUMP JUMPDEST PUSH1 0x40 MLOAD DUP1 SWAP2 SUB SWAP1 RETURN JUMPDEST PUSH2 0x14B PUSH1 0x4 DUP1 CALLDATASIZE SUB DUP2 ADD SWAP1 PUSH2 0x146 SWAP2 SWAP1 PUSH2 0x86F JUMP JUMPDEST PUSH2 0x513 JUMP JUMPDEST PUSH1 0x40 MLOAD PUSH2 0x158 SWAP2 SWAP1 PUSH2 0xA3C JUMP JUMPDEST PUSH1 0x40 MLOAD DUP1 SWAP2 SUB SWAP1 RETURN JUMPDEST PUSH2 0x169 PUSH2 0x54E JUMP JUMPDEST PUSH1 0x40 MLOAD PUSH2 0x176 SWAP2 SWAP1 PUSH2 0x9FF JUMP JUMPDEST PUSH1 0x40 MLOAD DUP1 SWAP2 SUB SWAP1 RETURN JUMPDEST PUSH2 0x187 PUSH2 0x5E0 JUMP JUMPDEST PUSH1 0x40 MLOAD PUSH2 0x194 SWAP2 SWAP1 PUSH2 0x9FF JUMP JUMPDEST PUSH1 0x40 MLOAD DUP1 SWAP2 SUB SWAP1 RETURN JUMPDEST PUSH1 0x0 PUSH1 0x4 DUP3 PUSH1 0x40 MLOAD PUSH2 0x1AF SWAP2 SWAP1 PUSH2 0xA93 JUMP JUMPDEST SWAP1 DUP2 MSTORE PUSH1 0x20 ADD PUSH1 0x40 MLOAD DUP1 SWAP2 SUB SWAP1 KECCAK256 PUSH1 0x0 SWAP1 SLOAD SWAP1 PUSH2 0x100 EXP SWAP1 DIV PUSH1 0xFF AND SWAP1 POP SWAP2 SWAP1 POP JUMP JUMPDEST PUSH1 0x3 PUSH1 0x0 SWAP1 SLOAD SWAP1 PUSH2 0x100 EXP SWAP1 DIV PUSH20 0xFFFFFFFFFFFFFFFFFFFFFFFFFFFFFFFFFFFFFFFF AND PUSH20 0xFFFFFFFFFFFFFFFFFFFFFFFFFFFFFFFFFFFFFFFF AND CALLER PUSH20 0xFFFFFFFFFFFFFFFFFFFFFFFFFFFFFFFFFFFFFFFF AND EQ PUSH2 0x262 JUMPI PUSH1 0x40 MLOAD PUSH32 0x8C379A000000000000000000000000000000000000000000000000000000000 DUP2 MSTORE PUSH1 0x4 ADD PUSH2 0x259 SWAP1 PUSH2 0xAF6 JUMP JUMPDEST PUSH1 0x40 MLOAD DUP1 SWAP2 SUB SWAP1 REVERT JUMPDEST PUSH1 0x0 DUP3 PUSH1 0xFF AND GT DUP1 ISZERO PUSH2 0x278 JUMPI POP PUSH1 0x65 DUP3 PUSH1 0xFF AND LT JUMPDEST PUSH2 0x2B7 JUMPI PUSH1 0x40 MLOAD PUSH32 0x8C379A000000000000000000000000000000000000000000000000000000000 DUP2 MSTORE PUSH1 0x4 ADD PUSH2 0x2AE SWAP1 PUSH2 0xB62 JUMP JUMPDEST PUSH1 0x40 MLOAD DUP1 SWAP2 SUB SWAP1 REVERT JUMPDEST DUP2 PUSH1 0x4 DUP3 PUSH1 0x40 MLOAD PUSH2 0x2C8 SWAP2 SWAP1 PUSH2 0xA93 JUMP JUMPDEST SWAP1 DUP2 MSTORE PUSH1 0x20 ADD PUSH1 0x40 MLOAD DUP1 SWAP2 SUB SWAP1 KECCAK256 PUSH1 0x0 PUSH2 0x100 EXP DUP2 SLOAD DUP2 PUSH1 0xFF MUL NOT AND SWAP1 DUP4 PUSH1 0xFF AND MUL OR SWAP1 SSTORE POP PUSH32 0xC97B5B477593CCF468BB1C6087A120C857D513BBED811B3BAC18702FEAC8CC23 DUP2 DUP4 PUSH1 0x40 MLOAD PUSH2 0x31F SWAP3 SWAP2 SWAP1 PUSH2 0xB82 JUMP JUMPDEST PUSH1 0x40 MLOAD DUP1 SWAP2 SUB SWAP1 LOG1 POP POP JUMP JUMPDEST PUSH1 0x3 PUSH1 0x0 SWAP1 SLOAD SWAP1 PUSH2 0x100 EXP SWAP1 DIV PUSH20 0xFFFFFFFFFFFFFFFFFFFFFFFFFFFFFFFFFFFFFFFF AND PUSH20 0xFFFFFFFFFFFFFFFFFFFFFFFFFFFFFFFFFFFFFFFF AND CALLER PUSH20 0xFFFFFFFFFFFFFFFFFFFFFFFFFFFFFFFFFFFFFFFF AND EQ PUSH2 0x3BB JUMPI PUSH1 0x40 MLOAD PUSH32 0x8C379A000000000000000000000000000000000000000000000000000000000 DUP2 MSTORE PUSH1 0x4 ADD PUSH2 0x3B2 SWAP1 PUSH2 0xAF6 JUMP JUMPDEST PUSH1 0x40 MLOAD DUP1 SWAP2 SUB SWAP1 REVERT JUMPDEST DUP1 PUSH1 0x5 PUSH1 0x0 PUSH1 0x6 PUSH1 0x0 SWAP1 SLOAD SWAP1 PUSH2 0x100 EXP SWAP1 DIV PUSH1 0xFF AND PUSH1 0xFF AND PUSH1 0xFF AND DUP2 MSTORE PUSH1 0x20 ADD SWAP1 DUP2 MSTORE PUSH1 0x20 ADD PUSH1 0x0 KECCAK256 SWAP1 DUP1 MLOAD SWAP1 PUSH1 0x20 ADD SWAP1 PUSH2 0x3F7 SWAP3 SWAP2 SWAP1 PUSH2 0x672 JUMP JUMPDEST POP PUSH1 0x6 PUSH1 0x0 DUP2 DUP2 SWAP1 SLOAD SWAP1 PUSH2 0x100 EXP SWAP1 DIV PUSH1 0xFF AND DUP1 SWAP3 SWAP2 SWAP1 PUSH2 0x417 SWAP1 PUSH2 0xBE1 JUMP JUMPDEST SWAP2 SWAP1 PUSH2 0x100 EXP DUP2 SLOAD DUP2 PUSH1 0xFF MUL NOT AND SWAP1 DUP4 PUSH1 0xFF AND MUL OR SWAP1 SSTORE POP POP POP JUMP JUMPDEST PUSH1 0x60 PUSH1 0x0 DUP1 PUSH1 0x1 PUSH1 0x40 MLOAD PUSH1 0x20 ADD PUSH2 0x44B SWAP3 SWAP2 SWAP1 PUSH2 0xD4A JUMP JUMPDEST PUSH1 0x40 MLOAD PUSH1 0x20 DUP2 DUP4 SUB SUB DUP2 MSTORE SWAP1 PUSH1 0x40 MSTORE SWAP1 POP DUP1 SWAP2 POP POP SWAP1 JUMP JUMPDEST PUSH1 0x0 DUP1 PUSH1 0x0 SWAP1 POP PUSH1 0x0 JUMPDEST PUSH1 0x6 PUSH1 0x0 SWAP1 SLOAD SWAP1 PUSH2 0x100 EXP SWAP1 DIV PUSH1 0xFF AND PUSH1 0xFF AND DUP2 PUSH1 0xFF AND LT ISZERO PUSH2 0x4EE JUMPI PUSH1 0x4 PUSH1 0x5 PUSH1 0x0 DUP4 PUSH1 0xFF AND PUSH1 0xFF AND DUP2 MSTORE PUSH1 0x20 ADD SWAP1 DUP2 MSTORE PUSH1 0x20 ADD PUSH1 0x0 KECCAK256 PUSH1 0x40 MLOAD PUSH2 0x4B2 SWAP2 SWAP1 PUSH2 0xD79 JUMP JUMPDEST SWAP1 DUP2 MSTORE PUSH1 0x20 ADD PUSH1 0x40 MLOAD DUP1 SWAP2 SUB SWAP1 KECCAK256 PUSH1 0x0 SWAP1 SLOAD SWAP1 PUSH2 0x100 EXP SWAP1 DIV PUSH1 0xFF AND DUP3 PUSH2 0x4D9 SWAP2 SWAP1 PUSH2 0xD90 JUMP JUMPDEST SWAP2 POP DUP1 DUP1 PUSH2 0x4E6 SWAP1 PUSH2 0xBE1 JUMP JUMPDEST SWAP2 POP POP PUSH2 0x46D JUMP JUMPDEST POP PUSH1 0x6 PUSH1 0x0 SWAP1 SLOAD SWAP1 PUSH2 0x100 EXP SWAP1 DIV PUSH1 0xFF AND DUP2 PUSH2 0x50A SWAP2 SWAP1 PUSH2 0xDF6 JUMP JUMPDEST SWAP1 POP DUP1 SWAP2 POP POP SWAP1 JUMP JUMPDEST PUSH1 0x0 PUSH1 0x3C PUSH1 0x4 DUP4 PUSH1 0x40 MLOAD PUSH2 0x527 SWAP2 SWAP1 PUSH2 0xA93 JUMP JUMPDEST SWAP1 DUP2 MSTORE PUSH1 0x20 ADD PUSH1 0x40 MLOAD DUP1 SWAP2 SUB SWAP1 KECCAK256 PUSH1 0x0 SWAP1 SLOAD SWAP1 PUSH2 0x100 EXP SWAP1 DIV PUSH1 0xFF AND PUSH1 0xFF AND GT SWAP1 POP SWAP2 SWAP1 POP JUMP JUMPDEST PUSH1 0x60 PUSH1 0x1 DUP1 SLOAD PUSH2 0x55D SWAP1 PUSH2 0xC39 JUMP JUMPDEST DUP1 PUSH1 0x1F ADD PUSH1 0x20 DUP1 SWAP2 DIV MUL PUSH1 0x20 ADD PUSH1 0x40 MLOAD SWAP1 DUP2 ADD PUSH1 0x40 MSTORE DUP1 SWAP3 SWAP2 SWAP1 DUP2 DUP2 MSTORE PUSH1 0x20 ADD DUP3 DUP1 SLOAD PUSH2 0x589 SWAP1 PUSH2 0xC39 JUMP JUMPDEST DUP1 ISZERO PUSH2 0x5D6 JUMPI DUP1 PUSH1 0x1F LT PUSH2 0x5AB JUMPI PUSH2 0x100 DUP1 DUP4 SLOAD DIV MUL DUP4 MSTORE SWAP2 PUSH1 0x20 ADD SWAP2 PUSH2 0x5D6 JUMP JUMPDEST DUP3 ADD SWAP2 SWAP1 PUSH1 0x0 MSTORE PUSH1 0x20 PUSH1 0x0 KECCAK256 SWAP1 JUMPDEST DUP2 SLOAD DUP2 MSTORE SWAP1 PUSH1 0x1 ADD SWAP1 PUSH1 0x20 ADD DUP1 DUP4 GT PUSH2 0x5B9 JUMPI DUP3 SWAP1 SUB PUSH1 0x1F AND DUP3 ADD SWAP2 JUMPDEST POP POP POP POP POP SWAP1 POP SWAP1 JUMP JUMPDEST PUSH1 0x60 PUSH1 0x2 DUP1 SLOAD PUSH2 0x5EF SWAP1 PUSH2 0xC39 JUMP JUMPDEST DUP1 PUSH1 0x1F ADD PUSH1 0x20 DUP1 SWAP2 DIV MUL PUSH1 0x20 ADD PUSH1 0x40 MLOAD SWAP1 DUP2 ADD PUSH1 0x40 MSTORE DUP1 SWAP3 SWAP2 SWAP1 DUP2 DUP2 MSTORE PUSH1 0x20 ADD DUP3 DUP1 SLOAD PUSH2 0x61B SWAP1 PUSH2 0xC39 JUMP JUMPDEST DUP1 ISZERO PUSH2 0x668 JUMPI DUP1 PUSH1 0x1F LT PUSH2 0x63D JUMPI PUSH2 0x100 DUP1 DUP4 SLOAD DIV MUL DUP4 MSTORE SWAP2 PUSH1 0x20 ADD SWAP2 PUSH2 0x668 JUMP JUMPDEST DUP3 ADD SWAP2 SWAP1 PUSH1 0x0 MSTORE PUSH1 0x20 PUSH1 0x0 KECCAK256 SWAP1 JUMPDEST DUP2 SLOAD DUP2 MSTORE SWAP1 PUSH1 0x1 ADD SWAP1 PUSH1 0x20 ADD DUP1 DUP4 GT PUSH2 0x64B JUMPI DUP3 SWAP1 SUB PUSH1 0x1F AND DUP3 ADD SWAP2 JUMPDEST POP POP POP POP POP SWAP1 POP SWAP1 JUMP JUMPDEST DUP3 DUP1 SLOAD PUSH2 0x67E SWAP1 PUSH2 0xC39 JUMP JUMPDEST SWAP1 PUSH1 0x0 MSTORE PUSH1 0x20 PUSH1 0x0 KECCAK256 SWAP1 PUSH1 0x1F ADD PUSH1 0x20 SWAP1 DIV DUP2 ADD SWAP3 DUP3 PUSH2 0x6A0 JUMPI PUSH1 0x0 DUP6 SSTORE PUSH2 0x6E7 JUMP JUMPDEST DUP3 PUSH1 0x1F LT PUSH2 0x6B9 JUMPI DUP1 MLOAD PUSH1 0xFF NOT AND DUP4 DUP1 ADD OR DUP6 SSTORE PUSH2 0x6E7 JUMP JUMPDEST DUP3 DUP1 ADD PUSH1 0x1 ADD DUP6 SSTORE DUP3 ISZERO PUSH2 0x6E7 JUMPI SWAP2 DUP3 ADD JUMPDEST DUP3 DUP2 GT ISZERO PUSH2 0x6E6 JUMPI DUP3 MLOAD DUP3 SSTORE SWAP2 PUSH1 0x20 ADD SWAP2 SWAP1 PUSH1 0x1 ADD SWAP1 PUSH2 0x6CB JUMP JUMPDEST JUMPDEST POP SWAP1 POP PUSH2 0x6F4 SWAP2 SWAP1 PUSH2 0x6F8 JUMP JUMPDEST POP SWAP1 JUMP JUMPDEST JUMPDEST DUP1 DUP3 GT ISZERO PUSH2 0x711 JUMPI PUSH1 0x0 DUP2 PUSH1 0x0 SWAP1 SSTORE POP PUSH1 0x1 ADD PUSH2 0x6F9 JUMP JUMPDEST POP SWAP1 JUMP JUMPDEST PUSH1 0x0 PUSH1 0x40 MLOAD SWAP1 POP SWAP1 JUMP JUMPDEST PUSH1 0x0 DUP1 REVERT JUMPDEST PUSH1 0x0 DUP1 REVERT JUMPDEST PUSH1 0x0 DUP1 REVERT JUMPDEST PUSH1 0x0 DUP1 REVERT JUMPDEST PUSH1 0x0 PUSH1 0x1F NOT PUSH1 0x1F DUP4 ADD AND SWAP1 POP SWAP2 SWAP1 POP JUMP JUMPDEST PUSH32 0x4E487B7100000000000000000000000000000000000000000000000000000000 PUSH1 0x0 MSTORE PUSH1 0x41 PUSH1 0x4 MSTORE PUSH1 0x24 PUSH1 0x0 REVERT JUMPDEST PUSH2 0x77C DUP3 PUSH2 0x733 JUMP JUMPDEST DUP2 ADD DUP2 DUP2 LT PUSH8 0xFFFFFFFFFFFFFFFF DUP3 GT OR ISZERO PUSH2 0x79B JUMPI PUSH2 0x79A PUSH2 0x744 JUMP JUMPDEST JUMPDEST DUP1 PUSH1 0x40 MSTORE POP POP POP JUMP JUMPDEST PUSH1 0x0 PUSH2 0x7AE PUSH2 0x715 JUMP JUMPDEST SWAP1 POP PUSH2 0x7BA DUP3 DUP3 PUSH2 0x773 JUMP JUMPDEST SWAP2 SWAP1 POP JUMP JUMPDEST PUSH1 0x0 PUSH8 0xFFFFFFFFFFFFFFFF DUP3 GT ISZERO PUSH2 0x7DA JUMPI PUSH2 0x7D9 PUSH2 0x744 JUMP JUMPDEST JUMPDEST PUSH2 0x7E3 DUP3 PUSH2 0x733 JUMP JUMPDEST SWAP1 POP PUSH1 0x20 DUP2 ADD SWAP1 POP SWAP2 SWAP1 POP JUMP JUMPDEST DUP3 DUP2 DUP4 CALLDATACOPY PUSH1 0x0 DUP4 DUP4 ADD MSTORE POP POP POP JUMP JUMPDEST PUSH1 0x0 PUSH2 0x812 PUSH2 0x80D DUP5 PUSH2 0x7BF JUMP JUMPDEST PUSH2 0x7A4 JUMP JUMPDEST SWAP1 POP DUP3 DUP2 MSTORE PUSH1 0x20 DUP2 ADD DUP5 DUP5 DUP5 ADD GT ISZERO PUSH2 0x82E JUMPI PUSH2 0x82D PUSH2 0x72E JUMP JUMPDEST JUMPDEST PUSH2 0x839 DUP5 DUP3 DUP6 PUSH2 0x7F0 JUMP JUMPDEST POP SWAP4 SWAP3 POP POP POP JUMP JUMPDEST PUSH1 0x0 DUP3 PUSH1 0x1F DUP4 ADD SLT PUSH2 0x856 JUMPI PUSH2 0x855 PUSH2 0x729 JUMP JUMPDEST JUMPDEST DUP2 CALLDATALOAD PUSH2 0x866 DUP5 DUP3 PUSH1 0x20 DUP7 ADD PUSH2 0x7FF JUMP JUMPDEST SWAP2 POP POP SWAP3 SWAP2 POP POP JUMP JUMPDEST PUSH1 0x0 PUSH1 0x20 DUP3 DUP5 SUB SLT ISZERO PUSH2 0x885 JUMPI PUSH2 0x884 PUSH2 0x71F JUMP JUMPDEST JUMPDEST PUSH1 0x0 DUP3 ADD CALLDATALOAD PUSH8 0xFFFFFFFFFFFFFFFF DUP2 GT ISZERO PUSH2 0x8A3 JUMPI PUSH2 0x8A2 PUSH2 0x724 JUMP JUMPDEST JUMPDEST PUSH2 0x8AF DUP5 DUP3 DUP6 ADD PUSH2 0x841 JUMP JUMPDEST SWAP2 POP POP SWAP3 SWAP2 POP POP JUMP JUMPDEST PUSH1 0x0 PUSH1 0xFF DUP3 AND SWAP1 POP SWAP2 SWAP1 POP JUMP JUMPDEST PUSH2 0x8CE DUP2 PUSH2 0x8B8 JUMP JUMPDEST DUP3 MSTORE POP POP JUMP JUMPDEST PUSH1 0x0 PUSH1 0x20 DUP3 ADD SWAP1 POP PUSH2 0x8E9 PUSH1 0x0 DUP4 ADD DUP5 PUSH2 0x8C5 JUMP JUMPDEST SWAP3 SWAP2 POP POP JUMP JUMPDEST PUSH2 0x8F8 DUP2 PUSH2 0x8B8 JUMP JUMPDEST DUP2 EQ PUSH2 0x903 JUMPI PUSH1 0x0 DUP1 REVERT JUMPDEST POP JUMP JUMPDEST PUSH1 0x0 DUP2 CALLDATALOAD SWAP1 POP PUSH2 0x915 DUP2 PUSH2 0x8EF JUMP JUMPDEST SWAP3 SWAP2 POP POP JUMP JUMPDEST PUSH1 0x0 DUP1 PUSH1 0x40 DUP4 DUP6 SUB SLT ISZERO PUSH2 0x932 JUMPI PUSH2 0x931 PUSH2 0x71F JUMP JUMPDEST JUMPDEST PUSH1 0x0 PUSH2 0x940 DUP6 DUP3 DUP7 ADD PUSH2 0x906 JUMP JUMPDEST SWAP3 POP POP PUSH1 0x20 DUP4 ADD CALLDATALOAD PUSH8 0xFFFFFFFFFFFFFFFF DUP2 GT ISZERO PUSH2 0x961 JUMPI PUSH2 0x960 PUSH2 0x724 JUMP JUMPDEST JUMPDEST PUSH2 0x96D DUP6 DUP3 DUP7 ADD PUSH2 0x841 JUMP JUMPDEST SWAP2 POP POP SWAP3 POP SWAP3 SWAP1 POP JUMP JUMPDEST PUSH1 0x0 DUP2 MLOAD SWAP1 POP SWAP2 SWAP1 POP JUMP JUMPDEST PUSH1 0x0 DUP3 DUP3 MSTORE PUSH1 0x20 DUP3 ADD SWAP1 POP SWAP3 SWAP2 POP POP JUMP JUMPDEST PUSH1 0x0 JUMPDEST DUP4 DUP2 LT ISZERO PUSH2 0x9B1 JUMPI DUP1 DUP3 ADD MLOAD DUP2 DUP5 ADD MSTORE PUSH1 0x20 DUP2 ADD SWAP1 POP PUSH2 0x996 JUMP JUMPDEST DUP4 DUP2 GT ISZERO PUSH2 0x9C0 JUMPI PUSH1 0x0 DUP5 DUP5 ADD MSTORE JUMPDEST POP POP POP POP JUMP JUMPDEST PUSH1 0x0 PUSH2 0x9D1 DUP3 PUSH2 0x977 JUMP JUMPDEST PUSH2 0x9DB DUP2 DUP6 PUSH2 0x982 JUMP JUMPDEST SWAP4 POP PUSH2 0x9EB DUP2 DUP6 PUSH1 0x20 DUP7 ADD PUSH2 0x993 JUMP JUMPDEST PUSH2 0x9F4 DUP2 PUSH2 0x733 JUMP JUMPDEST DUP5 ADD SWAP2 POP POP SWAP3 SWAP2 POP POP JUMP JUMPDEST PUSH1 0x0 PUSH1 0x20 DUP3 ADD SWAP1 POP DUP2 DUP2 SUB PUSH1 0x0 DUP4 ADD MSTORE PUSH2 0xA19 DUP2 DUP5 PUSH2 0x9C6 JUMP JUMPDEST SWAP1 POP SWAP3 SWAP2 POP POP JUMP JUMPDEST PUSH1 0x0 DUP2 ISZERO ISZERO SWAP1 POP SWAP2 SWAP1 POP JUMP JUMPDEST PUSH2 0xA36 DUP2 PUSH2 0xA21 JUMP JUMPDEST DUP3 MSTORE POP POP JUMP JUMPDEST PUSH1 0x0 PUSH1 0x20 DUP3 ADD SWAP1 POP PUSH2 0xA51 PUSH1 0x0 DUP4 ADD DUP5 PUSH2 0xA2D JUMP JUMPDEST SWAP3 SWAP2 POP POP JUMP JUMPDEST PUSH1 0x0 DUP2 SWAP1 POP SWAP3 SWAP2 POP POP JUMP JUMPDEST PUSH1 0x0 PUSH2 0xA6D DUP3 PUSH2 0x977 JUMP JUMPDEST PUSH2 0xA77 DUP2 DUP6 PUSH2 0xA57 JUMP JUMPDEST SWAP4 POP PUSH2 0xA87 DUP2 DUP6 PUSH1 0x20 DUP7 ADD PUSH2 0x993 JUMP JUMPDEST DUP1 DUP5 ADD SWAP2 POP POP SWAP3 SWAP2 POP POP JUMP JUMPDEST PUSH1 0x0 PUSH2 0xA9F DUP3 DUP5 PUSH2 0xA62 JUMP JUMPDEST SWAP2 POP DUP2 SWAP1 POP SWAP3 SWAP2 POP POP JUMP JUMPDEST PUSH32 0x4E6F20736F7320646F63656E7465000000000000000000000000000000000000 PUSH1 0x0 DUP3 ADD MSTORE POP JUMP JUMPDEST PUSH1 0x0 PUSH2 0xAE0 PUSH1 0xE DUP4 PUSH2 0x982 JUMP JUMPDEST SWAP2 POP PUSH2 0xAEB DUP3 PUSH2 0xAAA JUMP JUMPDEST PUSH1 0x20 DUP3 ADD SWAP1 POP SWAP2 SWAP1 POP JUMP JUMPDEST PUSH1 0x0 PUSH1 0x20 DUP3 ADD SWAP1 POP DUP2 DUP2 SUB PUSH1 0x0 DUP4 ADD MSTORE PUSH2 0xB0F DUP2 PUSH2 0xAD3 JUMP JUMPDEST SWAP1 POP SWAP2 SWAP1 POP JUMP JUMPDEST PUSH32 0x5475206E6F7461206E6F2065732076616C696461000000000000000000000000 PUSH1 0x0 DUP3 ADD MSTORE POP JUMP JUMPDEST PUSH1 0x0 PUSH2 0xB4C PUSH1 0x14 DUP4 PUSH2 0x982 JUMP JUMPDEST SWAP2 POP PUSH2 0xB57 DUP3 PUSH2 0xB16 JUMP JUMPDEST PUSH1 0x20 DUP3 ADD SWAP1 POP SWAP2 SWAP1 POP JUMP JUMPDEST PUSH1 0x0 PUSH1 0x20 DUP3 ADD SWAP1 POP DUP2 DUP2 SUB PUSH1 0x0 DUP4 ADD MSTORE PUSH2 0xB7B DUP2 PUSH2 0xB3F JUMP JUMPDEST SWAP1 POP SWAP2 SWAP1 POP JUMP JUMPDEST PUSH1 0x0 PUSH1 0x40 DUP3 ADD SWAP1 POP DUP2 DUP2 SUB PUSH1 0x0 DUP4 ADD MSTORE PUSH2 0xB9C DUP2 DUP6 PUSH2 0x9C6 JUMP JUMPDEST SWAP1 POP PUSH2 0xBAB PUSH1 0x20 DUP4 ADD DUP5 PUSH2 0x8C5 JUMP JUMPDEST SWAP4 SWAP3 POP POP POP JUMP JUMPDEST PUSH32 0x4E487B7100000000000000000000000000000000000000000000000000000000 PUSH1 0x0 MSTORE PUSH1 0x11 PUSH1 0x4 MSTORE PUSH1 0x24 PUSH1 0x0 REVERT JUMPDEST PUSH1 0x0 PUSH2 0xBEC DUP3 PUSH2 0x8B8 JUMP JUMPDEST SWAP2 POP PUSH1 0xFF DUP3 SUB PUSH2 0xBFF JUMPI PUSH2 0xBFE PUSH2 0xBB2 JUMP JUMPDEST JUMPDEST PUSH1 0x1 DUP3 ADD SWAP1 POP SWAP2 SWAP1 POP JUMP JUMPDEST PUSH32 0x4E487B7100000000000000000000000000000000000000000000000000000000 PUSH1 0x0 MSTORE PUSH1 0x22 PUSH1 0x4 MSTORE PUSH1 0x24 PUSH1 0x0 REVERT JUMPDEST PUSH1 0x0 PUSH1 0x2 DUP3 DIV SWAP1 POP PUSH1 0x1 DUP3 AND DUP1 PUSH2 0xC51 JUMPI PUSH1 0x7F DUP3 AND SWAP2 POP JUMPDEST PUSH1 0x20 DUP3 LT DUP2 SUB PUSH2 0xC64 JUMPI PUSH2 0xC63 PUSH2 0xC0A JUMP JUMPDEST JUMPDEST POP SWAP2 SWAP1 POP JUMP JUMPDEST PUSH1 0x0 DUP2 SWAP1 POP DUP2 PUSH1 0x0 MSTORE PUSH1 0x20 PUSH1 0x0 KECCAK256 SWAP1 POP SWAP2 SWAP1 POP JUMP JUMPDEST PUSH1 0x0 DUP2 SLOAD PUSH2 0xC8C DUP2 PUSH2 0xC39 JUMP JUMPDEST PUSH2 0xC96 DUP2 DUP7 PUSH2 0xA57 JUMP JUMPDEST SWAP5 POP PUSH1 0x1 DUP3 AND PUSH1 0x0 DUP2 EQ PUSH2 0xCB1 JUMPI PUSH1 0x1 DUP2 EQ PUSH2 0xCC2 JUMPI PUSH2 0xCF5 JUMP JUMPDEST PUSH1 0xFF NOT DUP4 AND DUP7 MSTORE DUP2 DUP7 ADD SWAP4 POP PUSH2 0xCF5 JUMP JUMPDEST PUSH2 0xCCB DUP6 PUSH2 0xC6A JUMP JUMPDEST PUSH1 0x0 JUMPDEST DUP4 DUP2 LT ISZERO PUSH2 0xCED JUMPI DUP2 SLOAD DUP2 DUP10 ADD MSTORE PUSH1 0x1 DUP3 ADD SWAP2 POP PUSH1 0x20 DUP2 ADD SWAP1 POP PUSH2 0xCCE JUMP JUMPDEST DUP4 DUP9 ADD SWAP6 POP POP POP JUMPDEST POP POP POP SWAP3 SWAP2 POP POP JUMP JUMPDEST PUSH32 0x2000000000000000000000000000000000000000000000000000000000000000 PUSH1 0x0 DUP3 ADD MSTORE POP JUMP JUMPDEST PUSH1 0x0 PUSH2 0xD34 PUSH1 0x1 DUP4 PUSH2 0xA57 JUMP JUMPDEST SWAP2 POP PUSH2 0xD3F DUP3 PUSH2 0xCFE JUMP JUMPDEST PUSH1 0x1 DUP3 ADD SWAP1 POP SWAP2 SWAP1 POP JUMP JUMPDEST PUSH1 0x0 PUSH2 0xD56 DUP3 DUP6 PUSH2 0xC7F JUMP JUMPDEST SWAP2 POP PUSH2 0xD61 DUP3 PUSH2 0xD27 JUMP JUMPDEST SWAP2 POP PUSH2 0xD6D DUP3 DUP5 PUSH2 0xC7F JUMP JUMPDEST SWAP2 POP DUP2 SWAP1 POP SWAP4 SWAP3 POP POP POP JUMP JUMPDEST PUSH1 0x0 PUSH2 0xD85 DUP3 DUP5 PUSH2 0xC7F JUMP JUMPDEST SWAP2 POP DUP2 SWAP1 POP SWAP3 SWAP2 POP POP JUMP JUMPDEST PUSH1 0x0 PUSH2 0xD9B DUP3 PUSH2 0x8B8 JUMP JUMPDEST SWAP2 POP PUSH2 0xDA6 DUP4 PUSH2 0x8B8 JUMP JUMPDEST SWAP3 POP DUP3 PUSH1 0xFF SUB DUP3 GT ISZERO PUSH2 0xDBC JUMPI PUSH2 0xDBB PUSH2 0xBB2 JUMP JUMPDEST JUMPDEST DUP3 DUP3 ADD SWAP1 POP SWAP3 SWAP2 POP POP JUMP JUMPDEST PUSH32 0x4E487B7100000000000000000000000000000000000000000000000000000000 PUSH1 0x0 MSTORE PUSH1 0x12 PUSH1 0x4 MSTORE PUSH1 0x24 PUSH1 0x0 REVERT JUMPDEST PUSH1 0x0 PUSH2 0xE01 DUP3 PUSH2 0x8B8 JUMP JUMPDEST SWAP2 POP PUSH2 0xE0C DUP4 PUSH2 0x8B8 JUMP JUMPDEST SWAP3 POP DUP3 PUSH2 0xE1C JUMPI PUSH2 0xE1B PUSH2 0xDC7 JUMP JUMPDEST JUMPDEST DUP3 DUP3 DIV SWAP1 POP SWAP3 SWAP2 POP POP JUMP INVALID LOG2 PUSH5 0x6970667358 0x22 SLT KECCAK256 0xEC SSTORE 0xA9 0xA7 DUP12 0xD0 0xDB PUSH25 0xBCDFEF3ECFAB762F54042780339A97CF7F15BB2BA7AF4E3264 PUSH20 0x6F6C634300080E00330000000000000000000000 "
				},
				"gasEstimates": {
					"creation": {
						"codeDepositCost": "735400",
						"executionCost": "infinite",
						"totalCost": "infinite"
					},
					"external": {
						"agregar_materia(string)": "infinite",
						"apellido()": "infinite",
						"aprobo(string)": "infinite",
						"curso()": "infinite",
						"nombre_completo()": "infinite",
						"nota_materia(string)": "infinite",
						"promedio()": "infinite",
						"set_nota_materia(uint8,string)": "infinite"
					}
				},
				"methodIdentifiers": {
					"agregar_materia(string)": "40c3a02c",
					"apellido()": "972a8576",
					"aprobo(string)": "811d86c8",
					"curso()": "deafcc41",
					"nombre_completo()": "7346a9fa",
					"nota_materia(string)": "03b0779c",
					"promedio()": "7b2e0829",
					"set_nota_materia(uint8,string)": "2bd228f9"
				}
			},
			"storageLayout": {
				"storage": [
					{
						"astId": 3,
						"contract": "estudianteAlt.sol:Estudiante",
						"label": "_nombre",
						"offset": 0,
						"slot": "0",
						"type": "t_string_storage"
					},
					{
						"astId": 5,
						"contract": "estudianteAlt.sol:Estudiante",
						"label": "_apellido",
						"offset": 0,
						"slot": "1",
						"type": "t_string_storage"
					},
					{
						"astId": 7,
						"contract": "estudianteAlt.sol:Estudiante",
						"label": "_curso",
						"offset": 0,
						"slot": "2",
						"type": "t_string_storage"
					},
					{
						"astId": 9,
						"contract": "estudianteAlt.sol:Estudiante",
						"label": "_docente",
						"offset": 0,
						"slot": "3",
						"type": "t_address"
					},
					{
						"astId": 13,
						"contract": "estudianteAlt.sol:Estudiante",
						"label": "notas_materias",
						"offset": 0,
						"slot": "4",
						"type": "t_mapping(t_string_memory_ptr,t_uint8)"
					},
					{
						"astId": 17,
						"contract": "estudianteAlt.sol:Estudiante",
						"label": "_materias",
						"offset": 0,
						"slot": "5",
						"type": "t_mapping(t_uint8,t_string_storage)"
					},
					{
						"astId": 20,
						"contract": "estudianteAlt.sol:Estudiante",
						"label": "_cant_mat",
						"offset": 0,
						"slot": "6",
						"type": "t_uint8"
					},
					{
						"astId": 24,
						"contract": "estudianteAlt.sol:Estudiante",
						"label": "docentes",
						"offset": 0,
						"slot": "7",
						"type": "t_mapping(t_address,t_bool)"
					}
				],
				"types": {
					"t_address": {
						"encoding": "inplace",
						"label": "address",
						"numberOfBytes": "20"
					},
					"t_bool": {
						"encoding": "inplace",
						"label": "bool",
						"numberOfBytes": "1"
					},
					"t_mapping(t_address,t_bool)": {
						"encoding": "mapping",
						"key": "t_address",
						"label": "mapping(address => bool)",
						"numberOfBytes": "32",
						"value": "t_bool"
					},
					"t_mapping(t_string_memory_ptr,t_uint8)": {
						"encoding": "mapping",
						"key": "t_string_memory_ptr",
						"label": "mapping(string => uint8)",
						"numberOfBytes": "32",
						"value": "t_uint8"
					},
					"t_mapping(t_uint8,t_string_storage)": {
						"encoding": "mapping",
						"key": "t_uint8",
						"label": "mapping(uint8 => string)",
						"numberOfBytes": "32",
						"value": "t_string_storage"
					},
					"t_string_memory_ptr": {
						"encoding": "bytes",
						"label": "string",
						"numberOfBytes": "32"
					},
					"t_string_storage": {
						"encoding": "bytes",
						"label": "string",
						"numberOfBytes": "32"
					},
					"t_uint8": {
						"encoding": "inplace",
						"label": "uint8",
						"numberOfBytes": "1"
					}
				}
			},
			"userdoc": {
				"kind": "user",
				"methods": {},
				"version": 1
			}
		}
	}
}